:03005B000200039D
:10000300C0E0C0F0C083C082C0D075D000C000C0C3
:1000130001C002C003C004C005C006C007C2EFAFE1
:10002300C312004FAFC212004FD007D006D005D085
:1000330004D003D002D001D000D0D0D082D083D05E
:04004300F0D0E032E7
:10020C00E4F5B1F5B2F5B3F5B4F5ACF5ADFF7EC2DE
:10021C007D01FC12024653E8F043B38053B47FE4F3
:10022C00F5F643F60143E10143E83053E1F343E1D2
:0A023C000253E1BFD2AED2AF80FE44
:1002460053B1BF53B2BF53B17F53B27F759850437A
:100256008920438780438E1053C4DFAB07AA06A9C3
:1002660005A8047F407E427D0F7C0012009AEF04B1
:09027600F404F58DD28ED2992218
:10013F008F0B8E0A8D098C0853B1BF53B2BF53B1C9
:10014F007F53B27F75985043878053C4F843C420C0
:10015F00AB0BAA0AA909A8087F407E427D0F7C003D
:10016F0012009AC374FF9FFF74FF9EFEE49DFDE48F
:10017F009CFC780812012C8FC6AB0BAA0AA909A800
:10018F00087F407E427D0F7C0012009AC374FF9F50
:09019F00FF8FC543C408D2992268
:070047003098FDAF99C2984B
:01004E00228F
:08004F00C2998F993099FD223E
:1001A8008F0F8E0E8D0D8C0C53B1FB53B2FB53B3D6
:1001B800BF53B4BF75F85075C40853C4DFAB0FAA5A
:1001C8000EA90DA80C7F407E427D0F7C0012009A7C
:1001D800C374FF9FFF74FF9EFEE49DFDE49CFC78C2
:1001E8000812012C8FC6AB0FAA0EA90DA80C7F40D0
:1001F8007E427D0F7C0012009AC374FF9FFF8FC55B
:0402080043C40822C1
:0702AB0030F8FDAF9AC2F824
:0102B2002229
:0802B300C2F98F9A30F9FD2217
:0300000002027F7A
:10027F0075C7AA75C75575FD5A75C7AA75C7557540
:10028F00FDA5787FE4F6D8FD9000007FFF7E03E4A4
:0C029F00F0A3DFFCDEFA75810F02020CF8
:10005E0075F008758200EF2FFFEE33FECD33CDCC59
:10006E0033CCC58233C5829BED9AEC99E5829840DC
:10007E000CF582EE9BFEED9AFDEC99FC0FD5F0D6B9
:10008E00E4CEFBE4CDFAE4CCF9A88222B800C1B9E3
:10009E000059BA002DEC8BF084CFCECDFCE5F0CB21
:1000AE00F97818EF2FFFEE33FEED33FDEC33FCEB5A
:1000BE0033FB10D703994004EB99FB0FD8E5E4F915
:1000CE00FA227818EF2FFFEE33FEED33FDEC33FC02
:1000DE00C933C910D7059BE99A4007EC9BFCE99AF6
:1000EE00F90FD8E0E4C9FAE4CCFB2275F010EF2F3B
:1000FE00FFEE33FEED33FDCC33CCC833C810D7073B
:10010E009BEC9AE899400AED9BFDEC9AFCE899F875
:0E011E000FD5F0DAE4CDFBE4CCFAE4C8F92208
:10012C00E8600FECC313FCED13FDEE13FEEF13FFB1
:03013C00D8F122D5
:00000001FF
