:0908C20002080000010A00C180D7
:1008AB00438901E4F58CF58AC28CD2A9D2AF74FFCF
:0608BB00F50B740FF50CB3
:0108C1002214
:03000B000208E404
:0508E400C28CD20032BD
:0508E900AE08AF09227A
:0508EE00AF0A7E0022AC
:1004E00020000302057F7541547542B41202D320E7
:1004F0009112E5421542AE4170021541D39400EECF
:10050000940050EBD3E5429400E5419400406AD258
:100510008C2091FDC28CAF8CEF7F00FEAD8A7C00F9
:10052000E42DFFEC3ECF2401F544E43FF543AF4416
:100530001208CCE4F58CF58AD3E544946DE5439438
:1005400000500F750A01C200850B8C850C8AD28C75
:10055000802AAC43AD44E41201197B897A1D799756
:10056000783C12000E1201528E088F09E4F50AC27F
:1005700000F58CF58AD28C8003750A027F00227FF9
:010580000179
:010581002257
:10083000E4F53FF5401208ABE4F5B1F5B2F5B3F5D8
:10084000B4F5ACF5ADFF7EC27D01FC120582120449
:10085000E0EF70FA1208EEEF4E70F31208E9EF6560
:10086000407003EE653F60E61208E98E3F8F4080DE
:01087000DDAA
:010871002264
:1002D300D2920000000000000000000000000000B7
:1002E300000000000000000000000000000000000B
:1002F30000000000000000000000000000000000FB
:1003030000000000000000000000000000000000EA
:1003130000000000000000000000000000000000DA
:1003230000000000000000000000000000000000CA
:1003330000000000000000000000000000000000BA
:1003430000000000000000000000000000000000AA
:10035300000000000000000000000000000000009A
:10036300000000000000000000000000000000008A
:10037300000000000000000000000000000000007A
:10038300000000000000000000000000000000006A
:10039300000000000000000000000000000000005A
:1003A300000000000000000000000000000000004A
:1003B300000000000000000000000000000000003A
:1003C300000000000000000000000000000000002A
:1003D300000000000000000000000000000000001A
:1003E300000000000000000000000000000000000A
:1003F30000000000000000000000000000000000FA
:1004030000000000000000000000000000000000E9
:1004130000000000000000000000000000000000D9
:100423000000000000000000000000000000C29275
:0104330022A6
:10074F008F108E0F8D0E8C0D538EF7438901D28C27
:10075F00E4FFFEFDFCAB10AA0FA90EA80DC31202F9
:10076F00AF6025758A7E758CFF308DFDC28DE510CB
:10077F0024FFF510E50F34FFF50FE50E34FFF50EEE
:0B078F00E50D34FFF50D80C8C28C2280
:10079A008F148E138D128C11538EF7438901D28CCC
:1007AA00E4FFFEFDFCAB14AA13A912A811C312029E
:1007BA00AF6025758ACA758CFA308DFDC28DE51435
:1007CA0024FFF514E51334FFF513E51234FFF5128F
:0B07DA00E51134FFF51180C8C28C222D
:1007E5008F188E178D168C15538EEF438910D28E68
:1007F500E4FFFEFDFCAB18AA17A916A815C3120243
:10080500AF6025758BEA758DCB308FFDC28FE518EE
:1008150024FFF518E51734FFF517E51634FFF5162F
:0B082500E51534FFF51580C8C28E22D7
:100667008F1C8E1B8D1A8C1953C9BF53C9DF43C901
:1006770010D2CAE4FFFEFDFCAB1CAA1BA91AA819DD
:10068700C31202AF602575CC3075CDF830CFFDC2EF
:10069700CFE51C24FFF51CE51B34FFF51BE51A34D9
:0E06A700FFF51AE51934FFF51980C8C2CA2202
:1006B5008F488E478D468C4575C40743C408E4FFB3
:1006C500FEFDFCAB48AA47A946A845C31202AF6088
:1006D5002875C52C75C6CFE5C430E4FB53C4EFE5DA
:1006E5004824FFF548E54734FFF547E54634FFF56F
:0D06F50046E54534FFF54580C553C4F722A6
:100702008F4C8E4B8D4A8C4975C40743C408E4FF55
:10071200FEFDFCAB4CAA4BA94AA849C31202AF602A
:100722002875C5D875C6FFE5C430E4FB53C4EFE5B0
:100732004C24FFF54CE54B34FFF54BE54A34FFF50D
:0D0742004AE54934FFF54980C553C4F7224C
:1008720053B1BF53B2BF53B17F53B27F7598504348
:100882008920438780438E1053C4DFAB07AA06A991
:1008920005A8047F407E427D0F7C0012020FEF0408
:0908A200F404F58DD28ED29922E6
:100582008F448E438D428C4153B1BF53B2BF53B19E
:100592007F53B27F75985043878053C4F843C42079
:1005A200AB44AA43A942A8417F407E427D0F7C0012
:1005B20012020FC374FF9FFF74FF9EFEE49DFDE4D1
:1005C2009CFC78081202C08FC6AB44AA43A942A879
:1005D200417F407E427D0F7C0012020FC374FF9F59
:1005E200FF74FF9EFEE49DFDE49CFCEFE48FC54397
:0505F200C408D29922AB
:070003003098FDAF99C2988F
:01000A0022D3
:0808CC00C2998F993099FD22B9
:1005F7008F508E4F8D4E8C4D53B1FB53B2FB53B37F
:10060700BF53B4BF75F85075C40853C4DFAB50AAC5
:100617004FA94EA84D7F407E427D0F7C0012020FEE
:10062700C374FF9FFF74FF9EFEE49DFDE49CFC786E
:10063700081202C08FC6AB50AA4FA94EA84D7F40E3
:100647007E427D0F7C0012020FC374FF9FFF74FF71
:100657009EFEE49DFDE49CFCEFE48FC543C40822A5
:0708D40030F8FDAF9AC2F8F5
:0108DB0022FA
:0808DC00C2F98F9A30F9FD22E8
:03000000020434C3
:1004340075C7AA75C75575FD5A75C7AA75C7557589
:10044400FDA5787FE4F6D8FD9000007FFF7E03E4ED
:0C045400F0A3DFFCDEFA75815002049B6F
:10000E00EC4D6011E8497017ED33EC3304600DE4EC
:10001E00FCFFFEFD22E933E8330470F80201BE1244
:10002E00018958046009E4CC248150062850090245
:10003E0001C82840030201C5C0E0EB4A7044B980F4
:10004E0006D0E0FB0201B4EF4E701CBD8008EBFF42
:10005E00EAFEE9FD80EBE98DF0A4FEE5F00200F783
:10006E00E9CDF9EAFEEBFFEF89F0A4FCE5F0CE89CD
:10007E00F0A42EFFE435F0CD89F0A42DFEE435F08A
:10008E008067EF4E7005BD80D780C3EF8BF0A4ACB8
:10009E00F0EE8BF0A42CFCE435F0F8EF8AF0A42CF3
:1000AE00E5F038FCE433CB8DF0A42CFCE5F03BF806
:1000BE00EE8AF0A42CFCE5F038F8E433CF89F0A4F6
:1000CE002CFCE5F038CF3400CE89F0A42FFFE5F0FC
:1000DE003EFEE433C98DF0A42EFEE5F039CD8AF054
:1000EE00A42FFFE5F03EFEE43DFD33D0E0FB5007CC
:1000FE000BBB000F0201C8EC2CFCEF33FFEE33FEFE
:06010E00ED33FD0201A02B
:1001140075F020800E75F010800575F0087D007E66
:10012400007F003392D530D5031202A1EC33401086
:10013400EF33FFEE33FEED33FDEC33FCD5F0ED226F
:0E014400E5F0247EA2D513CC92E7CDCEFF22AB
:10015200EDD2E7CD33EC3392D524814006E4FFFEA5
:10016200FDFC22FCE4CFCECDCC24E0501174FF8004
:10017200EDC3CC13CCCD13CDCE13CECF13CF0470A1
:07018200F030D5DE0202A1FE
:10018900E9D2E7C933E833F892D5EDD2E7CD33ECBC
:0701990033FC5002B2D52235
:1001A000EC30E7100FBF000C0EBE00080DBD0004C0
:1001B0000BEB6014A2D5EB13FCED92E7FD2274FF6C
:1001C000FCFDFEFF22E480F8A2D574FF13FC7D80C5
:0301D000E480EFD9
:10046000020830E493A3F8E493A34003F68001F27A
:1004700008DFF48029E493A3F85407240CC8C3339D
:10048000C4540F4420C8834004F456800146F6DF6C
:10049000E4800B01020408102040809008C2E47E32
:1004A000019360BCA3FF543F30E509541FFEE49361
:1004B000A360010ECF54C025E060A840B8E493A328
:1004C000FAE493A3F8E493A3C8C582C8CAC583CA53
:1004D000F0A3C8C582C8CAC583CADFE9DEE780BE0B
:0108CB00002C
:1001D30075F008758200EF2FFFEE33FECD33CDCCE3
:1001E30033CCC58233C5829BED9AEC99E582984066
:1001F3000CF582EE9BFEED9AFDEC99FC0FD5F0D643
:10020300E4CEFBE4CDFAE4CCF9A88222B800C1B96C
:100213000059BA002DEC8BF084CFCECDFCE5F0CBAA
:10022300F97818EF2FFFEE33FEED33FDEC33FCEBE3
:1002330033FB10D703994004EB99FB0FD8E5E4F99E
:10024300FA227818EF2FFFEE33FEED33FDEC33FC8B
:10025300C933C910D7059BE99A4007EC9BFCE99A7F
:10026300F90FD8E0E4C9FAE4CCFB2275F010EF2FC4
:10027300FFEE33FEED33FDCC33CCC833C810D707C4
:100283009BEC9AE899400AED9BFDEC9AFCE899F8FF
:0E0293000FD5F0DAE4CDFBE4CCFAE4C8F92292
:0E02A100C3E49FFFE49EFEE49DFDE49CFC226E
:1002AF00EB9FF5F0EA9E42F0E99D42F0E89C45F0A5
:0102BF00221C
:1002C000E8600FECC313FCED13FDEE13FEEF13FF1C
:0302D000D8F12240
:00000001FF
