:09042B000708011102AA03515255
:0604350075BE0DD2C622C7
:02043B0080FE41
:020003008F0F5D
:10000500D2C5C2C330C3FDE5BD6408600312043B1D
:10001500C2C575BCA4C2C330C3FDE5BD6418600389
:1000250012043B75BC01C2C330C3FDE5BD64286045
:100035000312000075BC11C2C330C3FDE5BD6428C1
:10004500600312043B75BC02C2C330C3FDE5BD6449
:1000550028600312043B75BCAAC2C330C3FDE5BDCD
:100065006428600312043B75BC03C2C330C3FDE5BD
:10007500BD6428600312043B75BC51C2C330C3FD87
:10008500E5BD6428600312043B75BC52C2C330C38E
:10009500FDE5BD6428600312043BD2C4C2C3D2C5CA
:1000A500C2C330C3FDE5BD6408600312043BC2C58D
:1000B50075BCA4C2C330C3FDE5BDB418DDD2C4C24E
:1000C500C320C4FDD2C5C2C330C3FDE5BD6408600D
:1000D5000312043B75BCA4C2C5C2C330C3FDE5BD54
:1000E5006418600312043B75BC01C2C330C3FDE54F
:1000F500BD6428600312043BD2C5C2C330C3FDE50D
:10010500BD6410600312043BC2C575BCA5C2C330F3
:10011500C3FDE5BD6440600312043BE4F513F5122D
:10012500F511F510E47F07FEFDFCAB13AA12A9112A
:10013500A810C312041A5034D2C2C2C330C3FDE59D
:10014500BD6450600312043B74082513F8E665BCD2
:10015500600312043BE5132401F513E43512F5128F
:10016500E43511F511E43510F51080B8C2C2C2C3EB
:1001750030C3FDE5BD6458600312043BD2C4C2C35D
:0301850020C4FD96
:010188002254
:1003FE00E4F5B1F5B2F5B3F5B4F5ACF5AD120435DF
:0C040E007F55120003E4F580F5B080FE7D
:10031D008F178E168D158C14538EF7438901D28C41
:10032D00E4FFFEFDFCAB17AA16A915A814C3120411
:10033D001A6025758A7E758CFF308DFDC28DE5178F
:10034D0024FFF517E51634FFF516E51534FFF51501
:0B035D00E51434FFF51480C8C28C22A8
:100368008F1B8E1A8D198C18538EF7438901D28CE6
:10037800E4FFFEFDFCAB1BAA1AA919A818C31204B6
:100388001A6025758ACA758CFA308DFDC28DE51BF9
:1003980024FFF51BE51A34FFF51AE51934FFF519A2
:0B03A800E51834FFF51880C8C28C2255
:1003B3008F1F8E1E8D1D8C1C538EEF438910D28E82
:1003C300E4FFFEFDFCAB1FAA1EA91DA81CC312045B
:1003D3001A6025758BEA758DCB308FFDC28FE51FB3
:1003E30024FFF51FE51E34FFF51EE51D34FFF51D43
:0B03F300E51C34FFF51C80C8C28E2200
:100235008F248E238D228C2153C9BF53C9DF43C917
:1002450010D2CAE4FFFEFDFCAB24AA23A922A821F3
:10025500C312041A602575CC3075CDF830CFFDC2B8
:10026500CFE52424FFF524E52334FFF523E52234E7
:0E027500FFF522E52134FFF52180C8C2CA2220
:100283008F288E278D268C2575C40743C408E4FF69
:10029300FEFDFCAB28AA27A926A825C312041A60D1
:1002A3002875C52C75C6CFE5C430E4FB53C4EFE510
:1002B3002824FFF528E52734FFF527E52634FFF545
:0D02C30026E52534FFF52580C553C4F7223C
:1002D0008F2C8E2B8D2A8C2975C40743C408E4FF0C
:1002E000FEFDFCAB2CAA2BA92AA829C312041A6074
:1002F0002875C5D875C6FFE5C430E4FB53C4EFE5E7
:100300002C24FFF52CE52B34FFF52BE52A34FFF5E3
:0D0310002AE52934FFF52980C553C4F722E2
:0300000002018971
:1001890075C7AA75C75575FD5A75C7AA75C7557537
:10019900FDA5787FE4F6D8FD9000007FFF7E03E49B
:0C01A900F0A3DFFCDEFA75812C0201F0EF
:1001B5000203FEE493A3F8E493A34003F68001F25F
:1001C50008DFF48029E493A3F85407240CC8C3334B
:1001D500C4540F4420C8834004F456800146F6DF1A
:1001E500E4800B010204081020408090042BE47E7B
:1001F500019360BCA3FF543F30E509541FFEE4930F
:10020500A360010ECF54C025E060A840B8E493A3D5
:10021500FAE493A3F8E493A3C8C582C8CAC583CA00
:10022500F0A3C8C582C8CAC583CADFE9DEE780BEB8
:0104340000C7
:10041A00EB9FF5F0EA9E42F0E99D42F0E89C45F038
:01042A0022AF
:00000001FF
