:0E0828000A2074656D703D20307825625800FE
:1007C600438E02E4F5B1F5B2F5B3F5B4F5ACF5AD8B
:1007D600FF7EC27D01FC1205547508357BFF7A0841
:1007E600792885080C1200657F647E007D007C00F8
:0607F6001206F780E72265
:0808360030F9FDC2F98F9A228E
:1006AC008F258E248D238C22538EF7438901D28C77
:1006BC00E4FFFEFDFCAB25AA24A923A822C3120447
:1006CC002D6025758A7E758CFF308DFDC28D74FF73
:1006DC002525F525E52434FFF524E52334FFF52302
:0B06EC00E52234FFF52280C8C28C22FA
:1006F7008F0C8E0B8D0A8C09538EF7438901D28C90
:10070700E4FFFEFDFCAB0CAA0BA90AA809C312045F
:100717002D6025758ACA758CFA308DFDC28D74FFE0
:10072700250CF50CE50B34FFF50BE50A34FFF50A4C
:0B073700E50934FFF50980C8C28C22E0
:100742008F298E288D278C26538EEF438910D28EC7
:10075200E4FFFEFDFCAB29AA28A927A826C31204A0
:100762002D6025758BEA758DCB308FFDC28F74FF9E
:100772002529F529E52834FFF528E52734FFF52753
:0B078200E52634FFF52680C8C28E2259
:1005C4008F2D8E2C8D2B8C2A53C9BF53C9DF43C961
:1005D40010D2CAE4FFFEFDFCAB2DAA2CA92BA82A3D
:1005E400C312042D602575CC3075CDF830CFFDC213
:1005F400CF74FF252DF52DE52C34FFF52CE52B3498
:0E060400FFF52BE52A34FFF52A80C8C2CA2272
:100612008F318E308D2F8C2E75C40743C408E4FFB2
:10062200FEFDFCAB31AA30A92FA82EC312042D6007
:100632002875C52C75C6CFE5C430E4FB53C4EF74EE
:10064200FF2531F531E53034FFF530E52F34FFF584
:0D0652002FE52E34FFF52E80C553C4F7228E
:10065F008F358E348D338C3275C40743C408E4FF55
:10066F00FEFDFCAB35AA34A933A832C312042D60AA
:10067F002875C5D875C6FFE5C430E4FB53C4EF74C5
:10068F00FF2535F535E53434FFF534E53334FFF523
:0D069F0033E53234FFF53280C553C4F72235
:10078D0053B1BF53B2BF53B17F53B27F759850432E
:10079D008920438780438E1053C4DFAB07AA06A977
:1007AD0005A8047F407E427D0F7C0012039BEF0461
:0907BD00F404F58DD28ED29922CC
:1004DF008F398E388D378C3653B1BF53B2BF53B16E
:1004EF007F53B27F75985043878053C4F843C4201D
:1004FF00AB39AA38A937A8367F407E427D0F7C00E2
:10050F0012039BC374FF9FFF74FF9EFEE49DFDE4E7
:10051F009CFC780812043E8FC6AB39AA38A937A8BD
:10052F00367F407E427D0F7C0012039BC374FF9F7A
:10053F00FF74FF9EFEE49DFDE49CFCEFE48FC5433A
:05054F00C408D299224E
:07083E003098FDAF99C2984C
:010845002290
:08084600C2998F993099FD223F
:100554008F0C8E0B8D0A8C0953B1FB53B2FB53B332
:10056400BF53B4BF75F85075C40853C4DFAB0CAAAD
:100574000BA90AA8097F407E427D0F7C0012039BD1
:10058400C374FF9FFF74FF9EFEE49DFDE49CFC7812
:100594000812043E8FC6AB0CAA0BA90AA8097F4017
:1005A4007E427D0F7C0012039BC374FF9FFF74FF88
:1005B4009EFEE49DFDE49CFCEFE48FC543C4082249
:07084E0030F8FDAF9AC2F87B
:010855002280
:08085600C2F98F9A30F9FD226E
:030000000207FCF8
:1007FC0075C7AA75C75575FD5A75C7AA75C75575BE
:10080C00FDA5787FE4F6D8FD9000007FFF7E03E421
:0C081C00F0A3DFFCDEFA7581800207C645
:10035F0075F008758200EF2FFFEE33FECD33CDCC55
:10036F0033CCC58233C5829BED9AEC99E5829840D8
:10037F000CF582EE9BFEED9AFDEC99FC0FD5F0D6B5
:10038F00E4CEFBE4CDFAE4CCF9A88222B800C1B9DF
:10039F000059BA002DEC8BF084CFCECDFCE5F0CB1D
:1003AF00F97818EF2FFFEE33FEED33FDEC33FCEB56
:1003BF0033FB10D703994004EB99FB0FD8E5E4F911
:1003CF00FA227818EF2FFFEE33FEED33FDEC33FCFE
:1003DF00C933C910D7059BE99A4007EC9BFCE99AF2
:1003EF00F90FD8E0E4C9FAE4CCFB2275F010EF2F37
:1003FF00FFEE33FEED33FDCC33CCC833C810D70737
:10040F009BEC9AE899400AED9BFDEC9AFCE899F871
:0E041F000FD5F0DAE4CDFBE4CCFAE4C8F92204
:10042D00EB9FF5F0EA9E42F0E99D42F0E89C45F025
:01043D00229C
:10043E00E8600FECC313FCED13FDEE13FEEF13FF9C
:03044E00D8F122C0
:10000300E518240CF8E60518227809300702780C65
:10001300E475F0011204A90204512000EB7F2ED2F3
:10002300008018EF540F2490D43440D4FF30040BD5
:10003300EF24BFB41A0050032461FFE519600215D1
:1000430019051CE51C7002051B30070D7809E475C2
:10005300F0011204A9EF0204970208367403D207D1
:100063008003E4C207F5188B098A0A890BE4F519A2
:10007300F51BF51CE51960077F2012003E80F5751E
:100083001AFFC201C200C202C203C205C206C208ED
:1000930012000CFF700D3007057F0012004FAF1CDC
:1000A300AE1B22B4255FC2D5C20412000CFF24D0BC
:1000B300B40A00501A75F00A781930D50508B6FF4E
:1000C3000106C6A426F620D5047002D20380D924E3
:1000D300CFB41A00EF5004C2E5D20402024FD2019A
:1000E30080C6D20080C0D20280BCD2D580BAD205ED
:1000F30080B47F2012003E2002077401B51900402E
:10010300F1120003FF12003E020077D208D20680EC
:1001130095120003FB120003FA120003F94A4B7015
:100123000679207A037BFF20022EE519602A7E00E0
:100133008E8275830012046A60060EEE651A70F0F3
:10014300C2D5EBC0E0EAC0E0E9C0E0EE120296D00F
:10015300E0F9D0E0FAD0E0FB120451FF60AAEBC053
:10016300E0EAC0E0E9C0E012003ED0E02401F9D0AB
:10017300E03400FAD0E0FBE51A0460DCD51AD9803C
:10018300877BFF7A027992D202809C791080027970
:1001930008C206C2088008D2D5790A8004790AC247
:1001A300D5E51A047002F51AE4FAFDFEFF12000306
:1001B300FC7B08200113120003FD7B1030000A12A0
:1001C3000003FE120003FF7B20EC3382D592D5504F
:1001D30013C3E43000069FFFE49EFEE42001039D69
:1001E300FDE49CFCE4CBF8C201EC700CCFCECDCC8B
:1001F300E824F8F870F38017C3EF33FFEE33FEED16
:1002030033FDEC33FCEB33FB994002FB0FD8E9EBF6
:10021300300105F8D0E0C448B201C0E00AEC4D4E0D
:100223004F78207B0070C2EAB51A0040BCC0E012D0
:100233000298D0F0D0E0200104C4C0E0C4B201C0F1
:10024300F0120027D0F0D5F0EB0200771204B901C9
:100253001453018E5800E54C00E14201924F019A7C
:0F02630044019A4900FA4301A0550184460184E1
:100272004501844703405000E92D00ED2E01102B6B
:1002820000F123010E2003292A00A94800000108D9
:100292003F3F3F00790AA2D5200314300509B91067
:1002A200020404B9080104A2D52006025001042068
:1002B20002689202B519005034C0E07F2030031961
:1002C2007F30A20272067205500F1202EFC202C202
:1002D20006C205C2087F30800F300503E9C0E01274
:1002E200003E300503D0E0F9D0E0B519CC30051757
:1002F2007F30B9100C12003E7F583004077F78809F
:1003020003B9080312003E3002057F2D02003E7F32
:10031200202008F87F2B2006F322920280CF286E3D
:10032200756C6C2900D2011200033001F8C2017809
:100332001930D50108F60200A92D50434958120080
:10034200032403B405004001E490033B9312002F01
:0D035200743A12002FD20375190402018EB7
:10045100BB010689828A83E0225002E722BBFE02A9
:09046100E32289828A83E49322DC
:10046A00BB010CE58229F582E5833AF583E0225047
:10047A0006E92582F8E622BBFE06E92582F8E22291
:0D048A00E58229F582E5833AF583E49322AB
:10049700BB010689828A83F0225002F722BBFE0144
:0204A700F3223E
:1004A900FAE6FB0808E6F925F0F618E6CA3AF62254
:1004B900D083D082F8E4937012740193700DA3A3D2
:1004C90093F8740193F5828883E4737402936860E6
:0604D900EFA3A3A380DFE6
:00000001FF
