:10061E00012100015700015400014A00014B000165
:0E062E0053000156000149000155000148002B
:10001E00E4F556744C2556F8E66F60070556E5561E
:04002E00B422F022E6
:10063D00A291E433F4F54B654A554BF554854B4A7D
:01064D00228A
:0300330002028A3C
:10028A00C0E0C083C082C0D075D000C000C007AF34
:10029A00BDEF12012802C10003046002C56802C949
:1002AA008002DF880304A002EDA802F6B80304C0A6
:1002BA000304C800000306D2C48041C28280FE74CF
:1002CA004C2553F8A6BC0553E553B40704C2C280B3
:1002DA002BD2C28027744C2553F8A6BC755300D282
:1002EA00C2801975BC000553D2C2801074262548F5
:1002FA00F8E6F5BC0548D2C28002D2C2C2C3D00712
:0B030A00D000D0D0D082D083D0E032F1
:03000B0002000EE2
:09000E0085228C85248A0521322B
:03001B0002066674
:0706660085238D85258B32F1
:1005AB0053B3F753B4F753B3EF53B4EFD294D2938F
:1005BB00A2AF920075C7AA75C75575910143B2409A
:1005CB0075C7AA75C755E4F591A20092AF439B017D
:0A05DB00D2AF75C1A4D2C6D2C2226D
:1001FA00E4F5B1F5B2F5B3F5B4F5ACF5AD1205AB6E
:10020A005389F043890153890F43891075223C753C
:10021A0024B075239E75255885228C85248A8523CA
:10022A008D85258BD2A9D2ABD2AFD28ED28C1206B3
:10023A003D3091137F147E007D007C00120515303D
:10024A0091050557E4F521E521D39428400AE5579D
:10025A00B40105E4F521F557E521C39428500AE5D0
:10026A0057B40205E4F521F557E54BB4FFC0E55450
:10027A0070BCE521D3942840B5E4F521F55780AE4A
:1005E50053B1BF53B2BF53B17F53B27F75985043D8
:1005F5008920438780438E1053C4DFAB07AA06A921
:1006050005A8047F407E427D0F7C00120072EF0436
:09061500F404F58DD28ED2992275
:100315008F0B8E0A8D098C0853B1BF53B2BF53B1F1
:100325007F53B27F75985043878053C4F843C420E8
:10033500AB0BAA0AA909A8087F407E427D0F7C0065
:10034500120072C374FF9FFF74FF9EFEE49DFDE4DF
:100355009CFC78081201158FC6AB0BAA0AA909A83F
:10036500087F407E427D0F7C00120072C374FF9FA0
:09037500FF8FC543C408D2992290
:070003003098FDAF99C2988F
:01000A0022D3
:08064E00C2998F993099FD2239
:10037E008F0F8E0E8D0D8C0C53B1FB53B2FB53B3FE
:10038E00BF53B4BF75F85075C40853C4DFAB0FAA82
:10039E000EA90DA80C7F407E427D0F7C00120072CC
:1003AE00C374FF9FFF74FF9EFEE49DFDE49CFC78EA
:1003BE00081201158FC6AB0FAA0EA90DA80C7F400F
:1003CE007E427D0F7C00120072C374FF9FFF8FC5AB
:0403DE0043C40822EA
:0706560030F8FDAF9AC2F875
:01065D00227A
:08065E00C2F98F9A30F9FD2268
:1004CA008F138E128D118C10538EF7438901D28CA3
:1004DA00E4FFFEFDFCAB13AA12A911A810C3120176
:1004EA00046025758A7E758CFF308DFDC28DE513FB
:1004FA0024FFF513E51234FFF512E51134FFF51167
:0B050A00E51034FFF51080C8C28C2201
:100515008F5F8E5E8D5D8C5C538EF7438901D28C27
:10052500E4FFFEFDFCAB5FAA5EA95DA85CC31201FA
:10053500046025758ACA758CFA308DFDC28DE55F1C
:1005450024FFF55FE55E34FFF55EE55D34FFF55D9F
:0B055500E55C34FFF55C80C8C28C221E
:100560008F178E168D158C14538EEF438910D28EF3
:10057000E4FFFEFDFCAB17AA16A915A814C31201CF
:10058000046025758BEA758DCB308FFDC28FE51722
:1005900024FFF517E51634FFF516E51534FFF515BC
:0B05A000E51434FFF51480C8C28E2261
:1003E2008F1B8E1A8D198C1853C9BF53C9DF43C98D
:1003F20010D2CAE4FFFEFDFCAB1BAA1AA919A81869
:10040200C3120104602575CC3075CDF830CFFDC222
:10041200CFE51B24FFF51BE51A34FFF51AE5193465
:0E042200FFF519E51834FFF51880C8C2CA228C
:100430008F1F8E1E8D1D8C1C75C40743C408E4FFDE
:10044000FEFDFCAB1FAA1EA91DA81CC3120104605F
:100450002875C52C75C6CFE5C430E4FB53C4EFE561
:100460001F24FFF51FE51E34FFF51EE51D34FFF5C3
:0D0470001DE51C34FFF51C80C553C4F722A8
:10047D008F5B8E5A8D598C5875C40743C408E4FFA1
:10048D00FEFDFCAB5BAA5AA959A858C31201046022
:10049D002875C5D875C6FFE5C430E4FB53C4EFE538
:1004AD005B24FFF55BE55A34FFF55AE55934FFF54A
:0D04BD0059E55834FFF55880C553C4F722A7
:0300000002014EAC
:10014E0075C7AA75C75575FD5A75C7AA75C7557572
:10015E00FDA5787FE4F6D8FD9000007FFF7E03E4D6
:0C016E00F0A3DFFCDEFA75815F0201B532
:10017A000201FAE493A3F8E493A34003F68001F2A0
:10018A0008DFF48029E493A3F85407240CC8C33386
:10019A00C4540F4420C8834004F456800146F6DF55
:1001AA00E4800B010204081020408090061EE47EC1
:1001BA00019360BCA3FF543F30E509541FFEE4934A
:1001CA00A360010ECF54C025E060A840B8E493A311
:1001DA00FAE493A3F8E493A3C8C582C8CAC583CA3C
:1001EA00F0A3C8C582C8CAC583CADFE9DEE780BEF4
:01063C0000BD
:1000360075F008758200EF2FFFEE33FECD33CDCC81
:1000460033CCC58233C5829BED9AEC99E582984004
:100056000CF582EE9BFEED9AFDEC99FC0FD5F0D6E1
:10006600E4CEFBE4CDFAE4CCF9A88222B800C1B90B
:100076000059BA002DEC8BF084CFCECDFCE5F0CB49
:10008600F97818EF2FFFEE33FEED33FDEC33FCEB82
:1000960033FB10D703994004EB99FB0FD8E5E4F93D
:1000A600FA227818EF2FFFEE33FEED33FDEC33FC2A
:1000B600C933C910D7059BE99A4007EC9BFCE99A1E
:1000C600F90FD8E0E4C9FAE4CCFB2275F010EF2F63
:1000D600FFEE33FEED33FDCC33CCC833C810D70763
:1000E6009BEC9AE899400AED9BFDEC9AFCE899F89E
:0E00F6000FD5F0DAE4CDFBE4CCFAE4C8F92231
:10010400EB9FF5F0EA9E42F0E99D42F0E89C45F051
:0101140022C8
:10011500E8600FECC313FCED13FDEE13FEEF13FFC8
:03012500D8F122EC
:10012800D083D082F8E4937012740193700DA3A366
:1001380093F8740193F5828883E47374029368607A
:06014800EFA3A3A380DF7A
:00000001FF
