:10046200C2837F647E007D007C00120371D2837F91
:0C047200647E007D007C0012037180E4B9
:10040700A2AF9200C2AF75C7AA75C75543A401A290
:100417000092AFE59F30E616A2AF9200C2AF75C754
:0F042700AA75C755539FBFA20092AF120462225D
:10008E00A2AF9200C2AF75C7AA75C755439F01A212
:10009E000092AF75AEFF75AF22A2AF9200C2AF75E0
:1000AE00C7AA75C75543A501A20092AFE4F508F59E
:1000BE0009E50975F080A4F5A6E509AE087807C331
:1000CE0033CE33CED8F92400EE3438F5A712040718
:1000DE000509E50970020508C39420E5089400405F
:1000EE00D0A2AF9200C2AF75C7AA75C75553A5FE71
:1000FE00A20092AFA2AF9200C2AF75C7AA75C75544
:07010E00539FFEA20092AF17
:0101150022C7
:1001E600A2AF9200C2AF75C7AA75C755439F01A2B9
:1001F6000092AFE4F5A675A738F5AFF508F509E462
:10020600F5AE120407E5AEF4600312046205A6E536
:10021600A6700205A70509E50970020508C3E508E9
:10022600941040DBA2AF9200C2AF75C7AA75C7553E
:07023600539FFEA20092AFEE
:01023D00229E
:10011600A2AF9200C2AF75C7AA75C755439F01A289
:100126000092AFA2AF9200C2AF75C7AA75C755437A
:10013600A501A20092AFE4F5A675A73875AF21F523
:1001460008F50905AE12040705A6E5A6700205A77F
:100156000509E50970020508C3E508941040E4A204
:10016600AF9200C2AF75C7AA75C75553A5FEA200C8
:1001760092AFA2AF9200C2AF75C7AA75C755539F7B
:05018600FEA20092AF93
:01018B002251
:10018C00A2AF9200C2AF75C7AA75C755439F01A213
:10019C000092AFE4F5A675A738F5AFF50AF508F5AA
:1001AC0009120407E5AE650A600312046205A6E5B0
:1001BC00A6700205A7050A0509E50970020508C322
:1001CC00E508941040DBA2AF9200C2AF75C7AA75C8
:0901DC00C755539FFEA20092AF2B
:0101E50022F7
:10000300E4F5B1F5B2F5B3F5B4F5ACF5ADC2927F55
:1000130064FEFDFC1203717F647E007D007C001290
:10002300028CD2927F647E007D007C00120371C239
:10003300927F647E007D007C00120371D2927F6404
:100043007E007D007C0012037112008E1201E61205
:10005300011612018CC2927F647E007D007C001227
:100063000371D2927F647E007D007C00120371C213
:10007300927F647E007D007C00120371D2927F64C4
:0B0083007E007D007C0012037180FEF7
:100326008F128E118D108C0F538EF7438901D28C4C
:10033600E4FFFEFDFCAB12AA11A910A80FC312041C
:100346007E6025758A7E758CFF308DFDC28DE51227
:1003560024FFF512E51134FFF511E51034FFF51011
:0B036600E50F34FFF50F80C8C28C22A9
:100371008F0E8E0D8D0C8C0B538EF7438901D28C11
:10038100E4FFFEFDFCAB0EAA0DA90CA80BC31204E1
:100391007E6025758ACA758CFA308DFDC28DE50E99
:1003A10024FFF50EE50D34FFF50DE50C34FFF50CDA
:0B03B100E50B34FFF50B80C8C28C2266
:1003BC008F168E158D148C13538EEF438910D28E9D
:1003CC00E4FFFEFDFCAB16AA15A914A813C3120476
:1003DC007E6025758BEA758DCB308FFDC28FE5164F
:1003EC0024FFF516E51534FFF515E51434FFF51467
:0B03FC00E51334FFF51380C8C28E2209
:10023E008F1A8E198D188C1753C9BF53C9DF43C936
:10024E0010D2CAE4FFFEFDFCAB1AAA19A918A81712
:10025E00C312047E602575CC3075CDF830CFFDC24B
:10026E00CFE51A24FFF51AE51934FFF519E5183410
:0E027E00FFF518E51734FFF51780C8C2CA2235
:10028C008F0B8E0A8D098C0875C40743C408E4FFD4
:10029C00FEFDFCAB0BAA0AA909A808C312047E60D8
:1002AC002875C52C75C6CFE5C430E4FB53C4EFE507
:1002BC000B24FFF50BE50A34FFF50AE50934FFF5CD
:0D02CC0009E50834FFF50880C553C4F7228A
:1002D9008F1E8E1D8D1C8C1B75C40743C408E4FF3B
:1002E900FEFDFCAB1EAA1DA91CA81BC312047E603F
:1002F9002875C5D875C6FFE5C430E4FB53C4EFE5DE
:100309001E24FFF51EE51D34FFF51DE51C34FFF520
:0D0319001CE51B34FFF51B80C553C4F72203
:03000000020436C1
:1004360075C7AA75C75575FD5A75C7AA75C7557587
:10044600FDA5787FE4F6D8FD9000007FFF7E03E4EB
:0C045600F0A3DFFCDEFA75812002000339
:10047E00EB9FF5F0EA9E42F0E99D42F0E89C45F0D4
:01048E00224B
:00000001FF
