:0C06DE00010A00010B00010C00010D00DE
:03000B000205CF1C
:1005CF00C0E0C0D085088C85098A050BE50BC39464
:1005DF00F14005050A750B00E50AC3940640067540
:0C05EF000A00750B00050CD0D0D0E032E3
:0906F800E4F50CE50CB507FB224A
:1005FB008F3D8D3E8B3FE4F50DE50DC3953E501BB6
:10060B007511657512057513117B057D017F071239
:0C061B000563AF3F1206F8050D80DE22DB
:10062700E4F5B1F5B2F5B3F5B4F5ACF5AD1202BF2B
:100637005389F04389017508F475094885088C8545
:0A064700098AD2A9D2AFD28C80FE3E
:10052A0053B1BF53B2BF53B17F53B27F7598504393
:10053A008920438780438E1053C4DFAB07AA06A9DC
:10054A0005A8047F407E427D0F7C00120090EF04D4
:09055A00F404F58DD28ED2992231
:1001F2008F178E168D158C1453B1BF53B2BF53B1E6
:100202007F53B27F75985043878053C4F843C4200C
:10021200AB17AA16A915A8147F407E427D0F7C0059
:10022200120090C374FF9FFF74FF9EFEE49DFDE4E5
:100232009CFC78081201338FC6AB17AA16A915A821
:10024200147F407E427D0F7C00120090C374FF9F9A
:09025200FF8FC543C408D29922B4
:070003003098FDAF99C2988F
:01000A0022D3
:08070100C2998F993099FD2285
:10025B008F1B8E1A8D198C1853B1FB53B2FB53B3F2
:10026B00BF53B4BF75F85075C40853C4DFAB1BAA9A
:10027B001AA919A8187F407E427D0F7C00120090AE
:10028B00C374FF9FFF74FF9EFEE49DFDE49CFC780E
:10029B00081201338FC6AB1BAA1AA919A8187F40E5
:1002AB007E427D0F7C00120090C374FF9FFF8FC5B1
:0402BB0043C408220E
:0707090030F8FDAF9AC2F8C1
:0107100022C6
:08071100C2F98F9A30F9FD22B4
:100449008F1F8E1E8D1D8C1C538EF7438901D28CF4
:10045900E4FFFEFDFCAB1FAA1EA91DA81CC31201C7
:10046900226025758A7E758CFF308DFDC28DE51F52
:1004790024FFF51FE51E34FFF51EE51D34FFF51DAC
:0B048900E51C34FFF51C80C8C28C226B
:100494008F248E238D228C21538EF7438901D28C95
:1004A400E4FFFEFDFCAB24AA23A922A821C3120168
:1004B400226025758ACA758CFA308DFDC28DE524BB
:1004C40024FFF524E52334FFF523E52234FFF52248
:0B04D400E52134FFF52180C8C28C2216
:1004DF008F288E278D268C25538EEF438910D28E31
:1004EF00E4FFFEFDFCAB28AA27A926A825C312010D
:1004FF00226025758BEA758DCB308FFDC28FE52875
:10050F0024FFF528E52734FFF527E52634FFF526E8
:0B051F00E52534FFF52580C8C28E22C0
:100314008F2C8E2B8D2A8C2953C9BF53C9DF43C917
:1003240010D2CAE4FFFEFDFCAB2CAA2BA92AA829F3
:10033400C3120122602575CC3075CDF830CFFDC2D3
:10034400CFE52C24FFF52CE52B34FFF52BE52A34DF
:0E035400FFF52AE52934FFF52980C8C2CA2228
:100362008F308E2F8D2E8C2D75C40743C408E4FF69
:10037200FEFDFCAB30AA2FA92EA82DC312012260CC
:100382002875C52C75C6CFE5C430E4FB53C4EFE530
:100392003024FFF530E52F34FFF52FE52E34FFF53D
:0D03A2002EE52D34FFF52D80C553C4F72244
:1003AF008F348E338D328C3175C40743C408E4FF0C
:1003BF00FEFDFCAB34AA33A932A831C3120122606F
:1003CF002875C5D875C6FFE5C430E4FB53C4EFE507
:1003DF003424FFF534E53334FFF533E53234FFF5DC
:0D03EF0032E53134FFF53180C553C4F722EB
:04073500000000229E
:02073C00002299
:08071900D287120735C28722C6
:07072100D2870000C287220D
:03073900C2872252
:10069600E4FEEF30E7051207198003120721EF2564
:0606A600E0FF0EBE08ECAF
:0106AC00222B
:1006BF00AC07AF05120696AF04120696AF030206FB
:0106CF009694
:0603FC008B358A368937BB
:10040200C2AFE4F538AB35AA36A93775F003E53843
:10041200A4F58285F083120027FCE53875F003A469
:1004220029F9EA35F0FA900001120027FD90000246
:10043200120027FBAF041206BF0538E538C3940744
:0604420040C3D2AFAF3849
:010448002291
:06059B008B398A3A893B0E
:1005A100C2AFE4F53CAB39AA3AA93B12000EFF9069
:1005B1000001120027FD900002120027FB1206BF66
:0D05C100053CE53CC3940740DCD2AFAF3CE5
:0105CE00220A
:0D06D000E4FAE4FBFDFF1206BF0ABA21F5B3
:0106DD0022FA
:1006760053B3FE43B40143DE0443DF0353DFFB758C
:10068600D10775D9CFE4F5D475DC55D2DED2DF2299
:06072F00E4F5D4F5DC2224
:070728008F408D418B42223E
:01073E002298
:01073F002297
:1006510053B3FD43B40243DE0243DF0353DFFBE444
:10066100F5D175D934F5D375DB1AD2DED2DF43B3B8
:050671000153B4FE225C
:100563008512D48513DCA2AF9200C2AF75C7AA75FA
:10057300C755439101A20092AF8BC48511CC8FC59F
:100583008DCDA2AF9200C2AF75C7AA75C75553915F
:08059300FEA20092AFD2DE22AD
:1002BF0043DE0443DE1043DE2053DF3F43DF0353AF
:1002CF00DFFB75D10775D9CF75D40375DCCFA2AF1E
:1002DF009200C2AF75C7AA75C755439101A200928C
:1002EF00AF75C40375CCCF75C50375CDCFA2AF92D3
:1002FF0000C2AF75C7AA75C7555391FEA20092AF42
:05030F00D2DED2DF2266
:0D06EB00E4F511F512F513FBFDFF020563A8
:1006AD007511AA7512067513D17B017D017F0302A9
:0206BD000563D3
:03000000020146B4
:1001460075C7AA75C75575FD5A75C7AA75C755757A
:10015600FDA5787FE4F6D8FD9000007FFF7E03E4DE
:0C016600F0A3DFFCDEFA7581420201AD5F
:10017200020627E493A3F8E493A34003F68001F276
:1001820008DFF48029E493A3F85407240CC8C3338E
:10019200C4540F4420C8834004F456800146F6DF5D
:1001A200E4800B01020408102040809006DEE47E09
:1001B200019360BCA3FF543F30E509541FFEE49352
:1001C200A360010ECF54C025E060A840B8E493A319
:1001D200FAE493A3F8E493A3C8C582C8CAC583CA44
:1001E200F0A3C8C582C8CAC583CADFE9DEE780BEFC
:0106EA00000F
:10000E00BB010689828A83E0225002E722BBFE02F0
:09001E00E32289828A83E4932223
:10002700BB010CE58229F582E5833AF583E022508E
:1000370006E92582F8E622BBFE06E92582F8E222D8
:0D004700E58229F582E5833AF583E49322F2
:1000540075F008758200EF2FFFEE33FECD33CDCC63
:1000640033CCC58233C5829BED9AEC99E5829840E6
:100074000CF582EE9BFEED9AFDEC99FC0FD5F0D6C3
:10008400E4CEFBE4CDFAE4CCF9A88222B800C1B9ED
:100094000059BA002DEC8BF084CFCECDFCE5F0CB2B
:1000A400F97818EF2FFFEE33FEED33FDEC33FCEB64
:1000B40033FB10D703994004EB99FB0FD8E5E4F91F
:1000C400FA227818EF2FFFEE33FEED33FDEC33FC0C
:1000D400C933C910D7059BE99A4007EC9BFCE99A00
:1000E400F90FD8E0E4C9FAE4CCFB2275F010EF2F45
:1000F400FFEE33FEED33FDCC33CCC833C810D70745
:100104009BEC9AE899400AED9BFDEC9AFCE899F87F
:0E0114000FD5F0DAE4CDFBE4CCFAE4C8F92212
:10012200EB9FF5F0EA9E42F0E99D42F0E89C45F033
:0101320022AA
:10013300E8600FECC313FCED13FDEE13FEEF13FFAA
:03014300D8F122CE
:00000001FF
