:0F001700014C00014E00014400014D0001430067
:10000300E4F54E7445254EF8E66F6007054EE54E60
:04001300B422F02201
:030033000201FACD
:1001FA00C0E0C083C082C0D075D000C000C007AFC5
:10020A00BDEF12012802310002746002356802391A
:10021A0080024F880274A0025DA80266B80274C008
:10022A000274C800000276D2C48041C28280FE7481
:10023A0045254CF8A6BC054CE54CB40704C2C2805F
:10024A002BD2C280277445254CF8A6BC754C00D227
:10025A00C2801975BC00054CD2C280107421254396
:10026A00F8E6F5BC0543D2C28002D2C2C2C3D007A7
:0B027A00D000D0D0D082D083D0E03282
:1005820053B3F753B4F753B3EF53B4EFD294D293B8
:10059200A2AF920075C7AA75C75575910143B240C3
:1005A20075C7AA75C755E4F591A20092AF439B01A6
:0A05B200D2AF75C1A4D2C6D2C22296
:1002EE00E4F5B1F5B2F5B3F5B4F5ACF5AD120582A2
:1002FE0020C2FD85444DE54DC39407501774452526
:10030E004DF8E6FF7421254DF8A607E4F54C05449B
:10031E00054D80E27F031200037422254EF8E66439
:10032E005170227423254EF8E6B4521953B3FE438E
:10033E00B401C290D2907F1E7E007D007C0012041C
:07034E00ECD290C29080FE8A
:1005BC0053B1BF53B2BF53B17F53B27F7598504301
:1005CC008920438780438E1053C4DFAB07AA06A94A
:1005DC0005A8047F407E427D0F7C00120072EF0460
:0905EC00F404F58DD28ED299229F
:100285008F0B8E0A8D098C0853B1BF53B2BF53B182
:100295007F53B27F75985043878053C4F843C42079
:1002A500AB0BAA0AA909A8087F407E427D0F7C00F6
:1002B500120072C374FF9FFF74FF9EFEE49DFDE470
:1002C5009CFC78081201158FC6AB0BAA0AA909A8D0
:1002D500087F407E427D0F7C00120072C374FF9F31
:0902E500FF8FC543C408D2992221
:070027003098FDAF99C2986B
:01002E0022AF
:0805F500C2998F993099FD2293
:100355008F0F8E0E8D0D8C0C53B1FB53B2FB53B327
:10036500BF53B4BF75F85075C40853C4DFAB0FAAAB
:100375000EA90DA80C7F407E427D0F7C00120072F5
:10038500C374FF9FFF74FF9EFEE49DFDE49CFC7813
:10039500081201158FC6AB0FAA0EA90DA80C7F4038
:1003A5007E427D0F7C00120072C374FF9FFF8FC5D4
:0403B50043C4082213
:0705FD0030F8FDAF9AC2F8CF
:0106040022D3
:08060500C2F98F9A30F9FD22C1
:1004A1008F138E128D118C10538EF7438901D28CCC
:1004B100E4FFFEFDFCAB13AA12A911A810C312019F
:1004C100046025758A7E758CFF308DFDC28DE51324
:1004D10024FFF513E51234FFF512E51134FFF51190
:0B04E100E51034FFF51080C8C28C222B
:1004EC008F568E558D548C53538EF7438901D28C75
:1004FC00E4FFFEFDFCAB56AA55A954A853C3120148
:10050C00046025758ACA758CFA308DFDC28DE5564E
:10051C0024FFF556E55534FFF555E55434FFF554F5
:0B052C00E55334FFF55380C8C28C2259
:100537008F178E168D158C14538EEF438910D28E1C
:10054700E4FFFEFDFCAB17AA16A915A814C31201F8
:10055700046025758BEA758DCB308FFDC28FE5174B
:1005670024FFF517E51634FFF516E51534FFF515E5
:0B057700E51434FFF51480C8C28E228A
:1003B9008F1B8E1A8D198C1853C9BF53C9DF43C9B6
:1003C90010D2CAE4FFFEFDFCAB1BAA1AA919A81892
:1003D900C3120104602575CC3075CDF830CFFDC24C
:1003E900CFE51B24FFF51BE51A34FFF51AE519348F
:0E03F900FFF519E51834FFF51880C8C2CA22B6
:100407008F1F8E1E8D1D8C1C75C40743C408E4FF07
:10041700FEFDFCAB1FAA1EA91DA81CC31201046088
:100427002875C52C75C6CFE5C430E4FB53C4EFE58A
:100437001F24FFF51FE51E34FFF51EE51D34FFF5EC
:0D0447001DE51C34FFF51C80C553C4F722D1
:100454008F528E518D508C4F75C40743C408E4FFEE
:10046400FEFDFCAB52AA51A950A84FC3120104606F
:100474002875C5D875C6FFE5C430E4FB53C4EFE561
:100484005224FFF552E55134FFF551E55034FFF5A0
:0D04940050E54F34FFF54F80C553C4F722EB
:0300000002014EAC
:10014E0075C7AA75C75575FD5A75C7AA75C7557572
:10015E00FDA5787FE4F6D8FD9000007FFF7E03E4D6
:0C016E00F0A3DFFCDEFA7581560201B53B
:10017A000202EEE493A3F8E493A34003F68001F2AB
:10018A0008DFF48029E493A3F85407240CC8C33386
:10019A00C4540F4420C8834004F456800146F6DF55
:1001AA00E4800B0102040810204080900017E47ECE
:1001BA00019360BCA3FF543F30E509541FFEE4934A
:1001CA00A360010ECF54C025E060A840B8E493A311
:1001DA00FAE493A3F8E493A3C8C582C8CAC583CA3C
:1001EA00F0A3C8C582C8CAC583CADFE9DEE780BEF4
:0100260000D9
:1000360075F008758200EF2FFFEE33FECD33CDCC81
:1000460033CCC58233C5829BED9AEC99E582984004
:100056000CF582EE9BFEED9AFDEC99FC0FD5F0D6E1
:10006600E4CEFBE4CDFAE4CCF9A88222B800C1B90B
:100076000059BA002DEC8BF084CFCECDFCE5F0CB49
:10008600F97818EF2FFFEE33FEED33FDEC33FCEB82
:1000960033FB10D703994004EB99FB0FD8E5E4F93D
:1000A600FA227818EF2FFFEE33FEED33FDEC33FC2A
:1000B600C933C910D7059BE99A4007EC9BFCE99A1E
:1000C600F90FD8E0E4C9FAE4CCFB2275F010EF2F63
:1000D600FFEE33FEED33FDCC33CCC833C810D70763
:1000E6009BEC9AE899400AED9BFDEC9AFCE899F89E
:0E00F6000FD5F0DAE4CDFBE4CCFAE4C8F92231
:10010400EB9FF5F0EA9E42F0E99D42F0E89C45F051
:0101140022C8
:10011500E8600FECC313FCED13FDEE13FEEF13FFC8
:03012500D8F122EC
:10012800D083D082F8E4937012740193700DA3A366
:1001380093F8740193F5828883E47374029368607A
:06014800EFA3A3A380DF7A
:00000001FF
