:1007AE001E245111F15111F15111F15111F151114B
:1007BE00F15111F15111F15111F110000000000031
:0D07CE004101D6000142000143000123005B
:030033000202B70F
:1002B700C0E0C083C082C0D075D000C000C007AF07
:1002C700BDEF12016E02EE00031A6002F26802F639
:1002D70080030888031AA0031EA80332B80349C085
:1002E700031AC800000350D2C4805EC28280FE9009
:1002F70001D6E0245EF582E43401F583E5BCF080A5
:100307003A9001D6E0245EF582E43401F583E5BC3A
:10031700F0802FD2C280329001D6E4F0E02400F5BD
:1003270082E43400F583E0F5BC80109001D6E02428
:1003370000F582E43400F583E0F5BC9001D6E004D3
:1003470080049001D6E4F0D2C2C2C330C313E5BD26
:100357007002D2C4C2C330C3F2C2C6D2C6C2C380FF
:10036700EA20C4FDD007D000D0D0D082D083D0E01F
:010377003253
:03000B00020025CB
:0B00250085218C85228A0542054332AC
:1007070043B30843B40843B31043B410D294D2930D
:10071700A2AF920075C7AA75C75575910143B2403C
:1007270075C7AA75C755E4F591A20092AF439B011F
:0A073700D2AF75C140D2C6D2C22273
:0907ED00D28CEFB542FCC28C2253
:1001C000E4F5B1F5B2F5B3F5B4F5ACF5AD5389F09E
:1001D0004389017521FA7522EC85218C85228AD20A
:1001E000A9D2AFFE7F78FD7B017A01795E1201947E
:1001F0007E017F5E7D007B017A00790012019412FE
:100200000707E5BD64A0704CF542745E2542F58297
:10021000E43401F583E0601E74612542F582E43424
:1002200001F583E0FF74002542F582E43400F58394
:10023000EFF0054280D4752301E4F54274002542B5
:10024000F582E43400F583E0B45002C2920542E541
:1002500042B40AE8E523B401A9E4F542E542603777
:1002600075F018A42400F9740035F0FA7B017E00C3
:10027000E92542F9EE3AFA1205D975F018E542A4DB
:100280002542F582E435F0F583E58224FFF582E529
:100290008334FFF583800C7B017A0079001205D945
:1002A000900018E0FF1207ED0542E542C3940440B8
:0702B000ABE4F5230202029A
:1007410053B1BF53B2BF53B17F53B27F759850437A
:100751008920438780438E1053C4DFAB07AA06A9C3
:1007610005A8047F407E427D0F7C001200B8EF0493
:09077100F404F58DD28ED2992218
:100424008F0B8E0A8D098C0853B1BF53B2BF53B1E1
:100434007F53B27F75985043878053C4F843C420D8
:10044400AB0BAA0AA909A8087F407E427D0F7C0055
:100454001200B8C374FF9FFF74FF9EFEE49DFDE489
:100464009CFC780812015B8FC6AB0BAA0AA909A8E9
:10047400087F407E427D0F7C001200B8C374FF9F4A
:09048400FF8FC543C408D2992280
:070003003098FDAF99C2988F
:01000A0022D3
:0807F600C2998F993099FD2290
:10048D008F0F8E0E8D0D8C0C53B1FB53B2FB53B3EE
:10049D00BF53B4BF75F85075C40853C4DFAB0FAA72
:1004AD000EA90DA80C7F407E427D0F7C001200B876
:1004BD00C374FF9FFF74FF9EFEE49DFDE49CFC78DA
:1004CD000812015B8FC6AB0FAA0EA90DA80C7F40B9
:1004DD007E427D0F7C001200B8C374FF9FFF8FC555
:0404ED0043C40822DA
:0707FE0030F8FDAF9AC2F8CC
:0108050022D0
:08080600C2F98F9A30F9FD22BE
:100626008F138E128D118C10538EF7438901D28C45
:10063600E4FFFEFDFCAB13AA12A911A810C3120118
:100646004A6025758A7E758CFF308DFDC28DE51357
:1006560024FFF513E51234FFF512E51134FFF51109
:0B066600E51034FFF51080C8C28C22A4
:100671008F178E168D158C14538EF7438901D28CEA
:10068100E4FFFEFDFCAB17AA16A915A814C31201BD
:100691004A6025758ACA758CFA308DFDC28DE517C1
:1006A10024FFF517E51634FFF516E51534FFF515AA
:0B06B100E51434FFF51480C8C28C2251
:1006BC008F1B8E1A8D198C18538EEF438910D28E86
:1006CC00E4FFFEFDFCAB1BAA1AA919A818C3120162
:1006DC004A6025758BEA758DCB308FFDC28FE51B7B
:1006EC0024FFF51BE51A34FFF51AE51934FFF5194B
:0B06FC00E51834FFF51880C8C28E22FC
:1004F1008F1F8E1E8D1D8C1C53C9BF53C9DF43C96D
:1005010010D2CAE4FFFEFDFCAB1FAA1EA91DA81C48
:10051100C312014A602575CC3075CDF830CFFDC2CC
:10052100CFE51F24FFF51FE51E34FFF51EE51D3441
:0E053100FFF51DE51C34FFF51C80C8C2CA2270
:10053F008F478E468D458C4475C40743C408E4FF2E
:10054F00FEFDFCAB47AA46A945A844C312014A6069
:10055F002875C52C75C6CFE5C430E4FB53C4EFE551
:10056F004724FFF547E54634FFF546E54534FFF5EB
:0D057F0045E54434FFF54480C553C4F72220
:10058C008F4B8E4A8D498C4875C40743C408E4FFD1
:10059C00FEFDFCAB4BAA4AA949A848C312014A600C
:1005AC002875C5D875C6FFE5C430E4FB53C4EFE528
:1005BC004B24FFF54BE54A34FFF54AE54934FFF58A
:0D05CC0049E54834FFF54880C553C4F722C7
:04081D0000000022B5
:020821000022B3
:08080E00D28712081DC28722E7
:07081600D2870000C2872217
:03003000C2872262
:10000E00E4FEEF30E70512080E8003120816EF2506
:06001E00E0FF0EBE08EC3D
:0100240022B9
:1007DC00AC07AF0512000EAF0412000EAF030200FF
:0107EC000EFE
:0605D9008B508A5189528B
:1005DF00C2AFE4F553AB50AA51A95275F003E553DE
:1005EF00A4F58285F08312004FFCE55375F003A448
:1005FF0029F9EA35F0FA90000112004FFD90000240
:10060F0012004FFBAF041207DC0553E553C39408E8
:06061F0040C3D2AFAF534F
:0106250022B2
:06077A008B4C8A4D894EF4
:10078000C2AFE4F54FAB4CAA4DA94E120036FF9014
:10079000000112004FFD90000212004FFB1207DC17
:0D07A000054FE54FC3940840DCD2AFAF4FCA
:0107AD002229
:0300000002037880
:1003780075C7AA75C75575FD5A75C7AA75C7557546
:10038800FDA5787FE4F6D8FD9000007FFF7E03E4AA
:0C039800F0A3DFFCDEFA7581530203DFE6
:1003A4000201C0E493A3F8E493A34003F68001F2AE
:1003B40008DFF48029E493A3F85407240CC8C3335A
:1003C400C4540F4420C8834004F456800146F6DF29
:1003D400E4800B01020408102040809007AEE47E04
:1003E400019360BCA3FF543F30E509541FFEE4931E
:1003F400A360010ECF54C025E060A840B8E493A3E5
:10040400FAE493A3F8E493A3C8C582C8CAC583CA0F
:10041400F0A3C8C582C8CAC583CADFE9DEE780BEC7
:0107DB00001D
:10003600BB010689828A83E0225002E722BBFE02C8
:09004600E32289828A83E49322FB
:10004F00BB010CE58229F582E5833AF583E0225066
:10005F0006E92582F8E622BBFE06E92582F8E222B0
:0D006F00E58229F582E5833AF583E49322CA
:10007C0075F008758200EF2FFFEE33FECD33CDCC3B
:10008C0033CCC58233C5829BED9AEC99E5829840BE
:10009C000CF582EE9BFEED9AFDEC99FC0FD5F0D69B
:1000AC00E4CEFBE4CDFAE4CCF9A88222B800C1B9C5
:1000BC000059BA002DEC8BF084CFCECDFCE5F0CB03
:1000CC00F97818EF2FFFEE33FEED33FDEC33FCEB3C
:1000DC0033FB10D703994004EB99FB0FD8E5E4F9F7
:1000EC00FA227818EF2FFFEE33FEED33FDEC33FCE4
:1000FC00C933C910D7059BE99A4007EC9BFCE99AD8
:10010C00F90FD8E0E4C9FAE4CCFB2275F010EF2F1C
:10011C00FFEE33FEED33FDCC33CCC833C810D7071C
:10012C009BEC9AE899400AED9BFDEC9AFCE899F857
:0E013C000FD5F0DAE4CDFBE4CCFAE4C8F922EA
:10014A00EB9FF5F0EA9E42F0E99D42F0E89C45F00B
:01015A002282
:10015B00E8600FECC313FCED13FDEE13FEEF13FF82
:03016B00D8F122A6
:10016E00D083D082F8E4937012740193700DA3A320
:10017E0093F8740193F5828883E473740293686034
:06018E00EFA3A3A380DF34
:10019400EF4E6012EF60010EEDBB010B89828A8382
:1001A400F0A3DFFCDEFA2289F05007F709DFFCA98F
:0C01B400F022BBFEFCF309DFFCA9F022E6
:00000001FF
