:030635000133008E
:1005C800E4F5B1F5B2F5B3F5B4F5ACF5AD1202B496
:0205D80080FEA3
:10051F0053B1BF53B2BF53B17F53B27F759850439E
:10052F008920438780438E1053C4DFAB07AA06A9E7
:10053F0005A8047F407E427D0F7C00120085EF04EA
:09054F00F404F58DD28ED299223C
:1001E7008F0B8E0A8D098C0853B1BF53B2BF53B121
:1001F7007F53B27F75985043878053C4F843C42018
:10020700AB0BAA0AA909A8087F407E427D0F7C0094
:10021700120085C374FF9FFF74FF9EFEE49DFDE4FB
:100227009CFC78081201288FC6AB0BAA0AA909A85B
:10023700087F407E427D0F7C00120085C374FF9FBC
:09024700FF8FC543C408D29922BF
:0705F9003098FDAF99C29894
:0106000022D7
:08060100C2998F993099FD2286
:100250008F0F8E0E8D0D8C0C53B1FB53B2FB53B32D
:10026000BF53B4BF75F85075C40853C4DFAB0FAAB1
:100270000EA90DA80C7F407E427D0F7C00120085E8
:10028000C374FF9FFF74FF9EFEE49DFDE49CFC7819
:10029000081201288FC6AB0FAA0EA90DA80C7F402B
:1002A0007E427D0F7C00120085C374FF9FFF8FC5C7
:0402B00043C4082219
:0706090030F8FDAF9AC2F8C2
:0106100022C7
:08061100C2F98F9A30F9FD22B5
:10043E008F138E128D118C10538EF7438901D28C2F
:10044E00E4FFFEFDFCAB13AA12A911A810C3120102
:10045E00176025758A7E758CFF308DFDC28DE51374
:10046E0024FFF513E51234FFF512E51134FFF511F3
:0B047E00E51034FFF51080C8C28C228E
:100489008F178E168D158C14538EF7438901D28CD4
:10049900E4FFFEFDFCAB17AA16A915A814C31201A7
:1004A900176025758ACA758CFA308DFDC28DE517DE
:1004B90024FFF517E51634FFF516E51534FFF51594
:0B04C900E51434FFF51480C8C28C223B
:1004D4008F1B8E1A8D198C18538EEF438910D28E70
:1004E400E4FFFEFDFCAB1BAA1AA919A818C312014C
:1004F400176025758BEA758DCB308FFDC28FE51B98
:1005040024FFF51BE51A34FFF51AE51934FFF51934
:0B051400E51834FFF51880C8C28E22E5
:100309008F1F8E1E8D1D8C1C53C9BF53C9DF43C956
:1003190010D2CAE4FFFEFDFCAB1FAA1EA91DA81C32
:10032900C3120117602575CC3075CDF830CFFDC2E9
:10033900CFE51F24FFF51FE51E34FFF51EE51D342B
:0E034900FFF51DE51C34FFF51C80C8C2CA225A
:100357008F248E238D228C2175C40743C408E4FFA4
:10036700FEFDFCAB24AA23A922A821C31201176012
:100377002875C52C75C6CFE5C430E4FB53C4EFE53B
:100387002424FFF524E52334FFF523E52234FFF584
:0D03970022E52134FFF52180C553C4F72273
:1003A4008F288E278D268C2575C40743C408E4FF47
:1003B400FEFDFCAB28AA27A926A825C312011760B5
:1003C4002875C5D875C6FFE5C430E4FB53C4EFE512
:1003D4002824FFF528E52734FFF527E52634FFF523
:0D03E40026E52534FFF52580C553C4F7221A
:04063900000000229B
:02064000002296
:08061900D287120639C28722C4
:07062100D2870000C287220E
:03063D00C287224F
:1005B100E4FEEF30E7051206198003120621EF254C
:0605C100E0FF0EBE08EC95
:0105C7002211
:1005DA00AC07AF051205B1AF041205B1AF030205AE
:0105EA00B15F
:0603F1008B298A2A892BEA
:1003F700C2AFE4F52CAB29AA2AA92B75F003E52C8B
:10040700A4F58285F08312001CFCE52C75F003A48B
:1004170029F9EA35F0FA90000112001CFD9000025C
:1004270012001CFBAF041205DA052CE52CC3940758
:0604370040C3D2AFAF2C60
:01043D00229C
:060558008B2D8A2E892F75
:10055E00C2AFE4F530AB2DAA2EA92F120003FF90E7
:10056E00000112001CFD90000212001CFB1205DAA5
:0D057E000530E530C3940740DCD2AFAF304C
:01058B00224D
:0D05EB00E4FAE4FBFDFF1205DA0ABA21F57F
:0105F80022E0
:1002B40053B3FE43B40143DE0453B1F743B20843DE
:1002C400DE2043DF0353DFFB75D10775D9CFE4F597
:1002D400D475DC55A2AF9200C2AF75C7AA75C755D5
:1002E400439101A20092AF75C50675CDCFA2AF921E
:1002F40000C2AF75C7AA75C7555391FEA20092AF4D
:05030400D2DED2DF2271
:06062F00E4F5D4F5DC2225
:070628008F348D358B362263
:010642002295
:010643002294
:10058C0053B3FD43B40243DE0243DF0353DFFBE40A
:10059C00F5D175D934F5D375DB1AD2DED2DF43B37E
:0505AC000153B4FE2222
:0300000002013BBF
:10013B0075C7AA75C75575FD5A75C7AA75C7557585
:10014B00FDA5787FE4F6D8FD9000007FFF7E03E4E9
:0C015B00F0A3DFFCDEFA7581360201A281
:100167000205C8E493A3F8E493A34003F68001F2E1
:1001770008DFF48029E493A3F85407240CC8C33399
:10018700C4540F4420C8834004F456800146F6DF68
:10019700E4800B0102040810204080900635E47EBD
:1001A700019360BCA3FF543F30E509541FFEE4935D
:1001B700A360010ECF54C025E060A840B8E493A324
:1001C700FAE493A3F8E493A3C8C582C8CAC583CA4F
:1001D700F0A3C8C582C8CAC583CADFE9DEE780BE07
:0106380000C1
:10000300BB010689828A83E0225002E722BBFE02FB
:09001300E32289828A83E493222E
:10001C00BB010CE58229F582E5833AF583E0225099
:10002C0006E92582F8E622BBFE06E92582F8E222E3
:0D003C00E58229F582E5833AF583E49322FD
:1000490075F008758200EF2FFFEE33FECD33CDCC6E
:1000590033CCC58233C5829BED9AEC99E5829840F1
:100069000CF582EE9BFEED9AFDEC99FC0FD5F0D6CE
:10007900E4CEFBE4CDFAE4CCF9A88222B800C1B9F8
:100089000059BA002DEC8BF084CFCECDFCE5F0CB36
:10009900F97818EF2FFFEE33FEED33FDEC33FCEB6F
:1000A90033FB10D703994004EB99FB0FD8E5E4F92A
:1000B900FA227818EF2FFFEE33FEED33FDEC33FC17
:1000C900C933C910D7059BE99A4007EC9BFCE99A0B
:1000D900F90FD8E0E4C9FAE4CCFB2275F010EF2F50
:1000E900FFEE33FEED33FDCC33CCC833C810D70750
:1000F9009BEC9AE899400AED9BFDEC9AFCE899F88B
:0E0109000FD5F0DAE4CDFBE4CCFAE4C8F9221D
:10011700EB9FF5F0EA9E42F0E99D42F0E89C45F03E
:0101270022B5
:10012800E8600FECC313FCED13FDEE13FEEF13FFB5
:03013800D8F122D9
:00000001FF
