:10000E004101C3004101C400410000004101C5008F
:0C001E00010C00010D00010B00010800A6
:030033000202A91D
:1002A900C0E0C0F0C083C082C0D075D000C000C01B
:1002B90001C002C003C004C005C006C007AFBDEF3E
:1002C9002480603024E0604324F8604624F0605BB9
:1002D90024F8606E246060030203769001C3E4F0A1
:1002E900FE7F64FD7B017A01795F12016E90000047
:1002F900740180769001C3E0245FF582E43401F54E
:1003090083E5BCF09001C3E004805F750801D2C2A7
:10031900805B9001C5E4F0E02401F582E43400F546
:1003290083E0F5BC9001C5E004803F9001C5E0245D
:1003390001F582E43400F583E0F5BC9001C5E004E1
:1003490080289001C3E4F0FE7F64FD7B017A017986
:100359005F12016E7E017F5E7D007B017A0079016B
:1003690012016E750C009001C5E4F0D2C2C2C3300F
:10037900C313E5BD7002D2C4C2C330C3F2C2C6D230
:10038900C6C2C380EA20C4FDD007D006D005D00478
:10039900D003D002D001D000D0D0D082D083D0F009
:0303A900D0E0326F
:03000B00020824C4
:0908240085098C850A8A050D3254
:10073B0043B30843B40843B31043B410D294D293D9
:10074B00A2AF920075C7AA75C75575910143B24008
:10075B0075C7AA75C755E4F591A20092AF439B01EB
:0A076B00D2AF75C140D2C6D2C2223F
:0C081800D28CEFB50DFCC28CE4F50D2273
:10019A00E4F5B1F5B2F5B3F5B4F5ACF5AD5389F0C4
:1001AA004389017509FA750AEC85098C850A8AD290
:1001BA00A9D2AFFE7F64FD7B017A01795F12016EDD
:1001CA007E017F5E7D007B017A00790112016E1249
:1001DA00073BE508640170469001C4F09001C4E051
:1001EA00FFC39416502374622FF582E43401F58319
:1001FA00E0FF7401250CF582E43400F583EFF00585
:10020A000C9001C4E004F080D3900161E0D39480A3
:10021A004005750B01C292E49001C3F0F508E50BA5
:10022A00B401AFE4900000F0900000E07057F50CC4
:10023A00900161E02480FFE50CC39F50EB90000021
:10024A00E06401603CE50C75F015A42401F9740022
:10025A0035F0FA7B017E00E9250CF9EE3AFA12062E
:10026A000D75F015E50CA4250CF582E435F0F5833F
:10027A00E5822416F582E5833400F583E0FF12084F
:10028A0018050C80AB12080A7E017F5E7D007B0197
:0F029A007A00790112016EE4F50CF50B0201DC1C
:1007750053B1BF53B2BF53B17F53B27F7598504346
:100785008920438780438E1053C4DFAB07AA06A98F
:1007950005A8047F407E427D0F7C001200B8EF045F
:0907A500F404F58DD28ED29922E4
:100458008F118E108D0F8C0E53B1BF53B2BF53B195
:100468007F53B27F75985043878053C4F843C420A4
:10047800AB11AA10A90FA80E7F407E427D0F7C0009
:100488001200B8C374FF9FFF74FF9EFEE49DFDE455
:100498009CFC780812015B8FC6AB11AA10A90FA8A3
:1004A8000E7F407E427D0F7C001200B8C374FF9F10
:0904B800FF8FC543C408D299224C
:070003003098FDAF99C2988F
:01000A0022D3
:08002B00C2998F993099FD2262
:1004C1008F158E148D138C1253B1FB53B2FB53B3A2
:1004D100BF53B4BF75F85075C40853C4DFAB15AA38
:1004E10014A913A8127F407E427D0F7C001200B830
:1004F100C374FF9FFF74FF9EFEE49DFDE49CFC78A6
:100501000812015B8FC6AB15AA14A913A8127F406C
:100511007E427D0F7C001200B8C374FF9FFF8FC520
:0405210043C40822A5
:07082D0030F8FDAF9AC2F89C
:0108340022A1
:08083500C2F98F9A30F9FD228F
:10065A008F198E188D178C16538EF7438901D28CF9
:10066A00E4FFFEFDFCAB19AA18A917A816C31201CC
:10067A004A6025758A7E758CFF308DFDC28DE5191D
:10068A0024FFF519E51834FFF518E51734FFF517B7
:0B069A00E51634FFF51680C8C28C2264
:1006A5008F1D8E1C8D1B8C1A538EF7438901D28C9E
:1006B500E4FFFEFDFCAB1DAA1CA91BA81AC3120171
:1006C5004A6025758ACA758CFA308DFDC28DE51D87
:1006D50024FFF51DE51C34FFF51CE51B34FFF51B58
:0B06E500E51A34FFF51A80C8C28C2211
:1006F0008F248E238D228C21538EEF438910D28E2E
:10070000E4FFFEFDFCAB24AA23A922A821C3120109
:100710004A6025758BEA758DCB308FFDC28FE5243D
:1007200024FFF524E52334FFF523E52234FFF522E9
:0B073000E52134FFF52180C8C28E22B5
:100525008F288E278D268C2553C9BF53C9DF43C914
:1005350010D2CAE4FFFEFDFCAB28AA27A926A825F0
:10054500C312014A602575CC3075CDF830CFFDC298
:10055500CFE52824FFF528E52734FFF527E52634E0
:0E056500FFF526E52534FFF52580C8C2CA2221
:100573008F2C8E2B8D2A8C2975C40743C408E4FF66
:10058300FEFDFCAB2CAA2BA92AA829C312014A60A1
:100593002875C52C75C6CFE5C430E4FB53C4EFE51D
:1005A3002C24FFF52CE52B34FFF52BE52A34FFF53E
:0D05B3002AE52934FFF52980C553C4F7223D
:1005C0008F308E2F8D2E8C2D75C40743C408E4FF09
:1005D000FEFDFCAB30AA2FA92EA82DC312014A6044
:1005E0002875C5D875C6FFE5C430E4FB53C4EFE5F4
:1005F0003024FFF530E52F34FFF52FE52E34FFF5DD
:0D0600002EE52D34FFF52D80C553C4F722E3
:04084C000000002286
:02085300002281
:08083D00D28712084CC2872289
:07084500D2870000C28722E8
:03085000C287223A
:1007E200E4FEEF30E70512083D8003120845EF25CD
:0607F200E0FF0EBE08EC62
:0107F80022DE
:1007F900AC07AF051207E2AF041207E2AF03020725
:01080900E20C
:06060D008B358A368937A7
:10061300C2AFE4F538AB35AA36A93775F003E53830
:10062300A4F58285F08312004FFCE53875F003A42E
:1006330029F9EA35F0FA90000112004FFD9000020B
:1006430012004FFBAF041207F90538E538C39407CE
:0606530040C3D2AFAF3836
:01065900227E
:0607AE008B318A32893311
:1007B400C2AFE4F534AB31AA32A933120036FF904C
:1007C400000112004FFD90000212004FFB1207F9C6
:0D07D4000534E534C3940740DCD2AFAF34E8
:0107E10022F5
:0D080A00E4FAE4FBFDFF1207F90ABA21F53C
:0108170022BE
:030000000203AC4C
:1003AC0075C7AA75C75575FD5A75C7AA75C7557512
:1003BC00FDA5787FE4F6D8FD9000007FFF7E03E476
:0C03CC00F0A3DFFCDEFA75813802041398
:1003D80002019AE493A3F8E493A34003F68001F2A0
:1003E80008DFF48029E493A3F85407240CC8C33326
:1003F800C4540F4420C8834004F456800146F6DFF5
:10040800E4800B010204081020408090000EE47E76
:10041800019360BCA3FF543F30E509541FFEE493E9
:10042800A360010ECF54C025E060A840B8E493A3B0
:10043800FAE493A3F8E493A3C8C582C8CAC583CADB
:10044800F0A3C8C582C8CAC583CADFE9DEE780BE93
:01002A0000D5
:10003600BB010689828A83E0225002E722BBFE02C8
:09004600E32289828A83E49322FB
:10004F00BB010CE58229F582E5833AF583E0225066
:10005F0006E92582F8E622BBFE06E92582F8E222B0
:0D006F00E58229F582E5833AF583E49322CA
:10007C0075F008758200EF2FFFEE33FECD33CDCC3B
:10008C0033CCC58233C5829BED9AEC99E5829840BE
:10009C000CF582EE9BFEED9AFDEC99FC0FD5F0D69B
:1000AC00E4CEFBE4CDFAE4CCF9A88222B800C1B9C5
:1000BC000059BA002DEC8BF084CFCECDFCE5F0CB03
:1000CC00F97818EF2FFFEE33FEED33FDEC33FCEB3C
:1000DC0033FB10D703994004EB99FB0FD8E5E4F9F7
:1000EC00FA227818EF2FFFEE33FEED33FDEC33FCE4
:1000FC00C933C910D7059BE99A4007EC9BFCE99AD8
:10010C00F90FD8E0E4C9FAE4CCFB2275F010EF2F1C
:10011C00FFEE33FEED33FDCC33CCC833C810D7071C
:10012C009BEC9AE899400AED9BFDEC9AFCE899F857
:0E013C000FD5F0DAE4CDFBE4CCFAE4C8F922EA
:10014A00EB9FF5F0EA9E42F0E99D42F0E89C45F00B
:01015A002282
:10015B00E8600FECC313FCED13FDEE13FEEF13FF82
:03016B00D8F122A6
:10016E00EF4E6012EF60010EEDBB010B89828A83A8
:10017E00F0A3DFFCDEFA2289F05007F709DFFCA9B5
:0C018E00F022BBFEFCF309DFFCA9F0220C
:00000001FF
