:0603AE0075BE0DD2C6224F
:0203B40080FEC9
:020003008F0864
:10000500D2C5C2C330C3FDE5BD640860031203B4A5
:10001500C2C575BCA4C2C330C3FDE5BD6418600389
:100025001203B4E4F5BCC2C330C3FDE5BD6428606A
:1000350003120000E4F5BCC2C330C3FDE5BD64286E
:1000450060031203B4E4F50CF50BF50AF509E47F3A
:1000550020FEFDFCAB0CAA0BA90AA809C312039D3F
:10006500502B8508BCC2C330C3FDE5BD64286003C1
:100075001203B46308FFE50C2401F50CE4350BF518
:100085000BE4350AF50AE43509F50980C1D2C4C285
:10009500C3D2C5C2C330C3FDE5BD64086003120306
:1000A500B4C2C575BCA4C2C330C3FDE5BDB418DD7B
:1000B500D2C4C2C320C4FDD2C5C2C330C3FDE5BD91
:1000C500640860031203B475BCA4C2C5C2C330C3BF
:1000D500FDE5BD641860031203B4E4F5BCC2C3308A
:1000E500C3FDE5BD642860031203B4E4F5BCC2C3D7
:1000F50030C3FDE5BD642860031203B4D2C5C2C395
:1001050030C3FDE5BD641060031203B4C2C575BC00
:10011500A5C2C330C3FDE5BD644060031203B4E46A
:10012500F50CF50BF50AF509E47F1FFEFDFCAB0C9C
:10013500AA0BA90AA809C312039D5033D2C2C2C390
:1001450030C3FDE5BD645060031203B4E5BC65082A
:1001550060031203B46308FFE50C2401F50CE435D4
:100165000BF50BE4350AF50AE43509F50980B9C242
:10017500C2C2C330C3FDE5BD645860031203B4D2E7
:06018500C4C2C320C4FD4A
:01018B002251
:10038100E4F5B1F5B2F5B3F5B4F5ACF5AD1203AEE4
:0C0391007F55120003E4F580F5B080FEFB
:100274008F108E0F8D0E8C0D538EF7438901D28C07
:10028400E4FFFEFDFCAB10AA0FA90EA80DC31203D8
:100294009D6025758A7E758CFF308DFDC28DE510BD
:1002A40024FFF510E50F34FFF50FE50E34FFF50ECE
:0B02B400E50D34FFF50D80C8C28C2260
:1002BF008F148E138D128C11538EF7438901D28CAC
:1002CF00E4FFFEFDFCAB14AA13A912A811C312037D
:1002DF009D6025758ACA758CFA308DFDC28DE51427
:1002EF0024FFF514E51334FFF513E51234FFF5126F
:0B02FF00E51134FFF51180C8C28C220D
:10030A008F188E178D168C15538EEF438910D28E47
:10031A00E4FFFEFDFCAB18AA17A916A815C3120321
:10032A009D6025758BEA758DCB308FFDC28FE518E0
:10033A0024FFF518E51734FFF517E51634FFF5160F
:0B034A00E51534FFF51580C8C28E22B7
:10018C008F1C8E1B8D1A8C1953C9BF53C9DF43C9E1
:10019C0010D2CAE4FFFEFDFCAB1CAA1BA91AA819BD
:1001AC00C312039D602575CC3075CDF830CFFDC2E0
:1001BC00CFE51C24FFF51CE51B34FFF51BE51A34B9
:0E01CC00FFF51AE51934FFF51980C8C2CA22E2
:1001DA008F248E238D228C2175C40743C408E4FF23
:1001EA00FEFDFCAB24AA23A922A821C312039D6009
:1001FA002875C52C75C6CFE5C430E4FB53C4EFE5BA
:10020A002424FFF524E52334FFF523E52234FFF502
:0D021A0022E52134FFF52180C553C4F722F1
:100227008F288E278D268C2575C40743C408E4FFC5
:10023700FEFDFCAB28AA27A926A825C312039D60AB
:100247002875C5D875C6FFE5C430E4FB53C4EFE590
:100257002824FFF528E52734FFF527E52634FFF5A1
:0D02670026E52534FFF52580C553C4F72298
:03000000020355A3
:1003550075C7AA75C75575FD5A75C7AA75C7557569
:10036500FDA5787FE4F6D8FD9000007FFF7E03E4CD
:0C037500F0A3DFFCDEFA75812802038192
:10039D00EB9FF5F0EA9E42F0E99D42F0E89C45F0B6
:0103AD00222D
:00000001FF
