:1003F0007F007EC27D017C001200F57F551204153E
:0D0400007F017E007D007C0012034080EE35
:10038B0053B1BF53B2BF53B17F53B27F7598504334
:10039B008920438780438E1053C4DFAB07AA06A97D
:1003AB0005A8047F407E427D0F7C0012003FEF04C6
:0903BB00F404F58DD28ED29922D2
:1000F5008F248E238D228C2153B1BF53B2BF53B1B0
:100105007F53B27F75985043878053C4F843C4200A
:10011500AB24AA23A922A8217F407E427D0F7C0023
:1001250012003FC374FF9FFF74FF9EFEE49DFDE434
:100135009CFC78081200E28FC6AB24AA23A922A84A
:10014500217F407E427D0F7C0012003FC374FF9FDC
:09015500FF8FC543C408D29922B2
:07040D003098FDAF99C29881
:0104140022C5
:08041500C2998F993099FD2274
:10015E008F0B8E0A8D098C0853B1FB53B2FB53B330
:10016E00BF53B4BF75F85075C40853C4DFAB0BAAA8
:10017E000AA909A8087F407E427D0F7C0012003F2D
:10018E00C374FF9FFF74FF9EFEE49DFDE49CFC780C
:10019E00081200E28FC6AB0BAA0AA909A8087F4075
:1001AE007E427D0F7C0012003FC374FF9FFF8FC500
:0401BE0043C408220C
:07041D0030F8FDAF9AC2F8B0
:0104240022B5
:08042500C2F98F9A30F9FD22A3
:1002AA008F0F8E0E8D0D8C0C538EF7438901D28CD5
:1002BA00E4FFFEFDFCAB0FAA0EA90DA80CC31200A9
:1002CA00D16025758A7E758CFF308DFDC28DE50F54
:1002DA0024FFF50FE50E34FFF50EE50D34FFF50D9D
:0B02EA00E50C34FFF50C80C8C28C222C
:1002F5008F138E128D118C10538EF7438901D28C7A
:10030500E4FFFEFDFCAB13AA12A911A810C312004D
:10031500D16025758ACA758CFA308DFDC28DE513BD
:1003250024FFF513E51234FFF512E51134FFF5113D
:0B033500E51034FFF51080C8C28C22D8
:100340008F248E238D228C21538EEF438910D28EE1
:10035000E4FFFEFDFCAB24AA23A922A821C31200BE
:10036000D16025758BEA758DCB308FFDC28FE5246A
:1003700024FFF524E52334FFF523E52234FFF5229D
:0B038000E52134FFF52180C8C28E2269
:1001C2008F178E168D158C1453C9BF53C9DF43C9BF
:1001D20010D2CAE4FFFEFDFCAB17AA16A915A8149B
:1001E200C31200D1602575CC3075CDF830CFFDC279
:1001F200CFE51724FFF517E51634FFF516E515349C
:0E020200FFF515E51434FFF51480C8C2CA22BA
:100210008F1B8E1A8D198C1875C40743C408E4FF10
:10022000FEFDFCAB1BAA1AA919A818C31200D160C5
:100230002875C52C75C6CFE5C430E4FB53C4EFE583
:100240001B24FFF51BE51A34FFF51AE51934FFF5F9
:0D02500019E51834FFF51880C553C4F722D6
:10025D008F1F8E1E8D1D8C1C75C40743C408E4FFB3
:10026D00FEFDFCAB1FAA1EA91DA81CC31200D16068
:10027D002875C5D875C6FFE5C430E4FB53C4EFE55A
:10028D001F24FFF51FE51E34FFF51EE51D34FFF598
:0D029D001DE51C34FFF51C80C553C4F7227D
:030000000203C434
:1003C40075C7AA75C75575FD5A75C7AA75C75575FA
:1003D400FDA5787FE4F6D8FD9000007FFF7E03E45E
:0C03E400F0A3DFFCDEFA7581240203F0B8
:1000030075F008758200EF2FFFEE33FECD33CDCCB4
:1000130033CCC58233C5829BED9AEC99E582984037
:100023000CF582EE9BFEED9AFDEC99FC0FD5F0D614
:10003300E4CEFBE4CDFAE4CCF9A88222B800C1B93E
:100043000059BA002DEC8BF084CFCECDFCE5F0CB7C
:10005300F97818EF2FFFEE33FEED33FDEC33FCEBB5
:1000630033FB10D703994004EB99FB0FD8E5E4F970
:10007300FA227818EF2FFFEE33FEED33FDEC33FC5D
:10008300C933C910D7059BE99A4007EC9BFCE99A51
:10009300F90FD8E0E4C9FAE4CCFB2275F010EF2F96
:1000A300FFEE33FEED33FDCC33CCC833C810D70796
:1000B3009BEC9AE899400AED9BFDEC9AFCE899F8D1
:0E00C3000FD5F0DAE4CDFBE4CCFAE4C8F92264
:1000D100EB9FF5F0EA9E42F0E99D42F0E89C45F085
:0100E10022FC
:1000E200E8600FECC313FCED13FDEE13FEEF13FFFC
:0300F200D8F12220
:00000001FF
