:0C06EF00010A00010B00010C00010D00CD
:03000B00020608E2
:10060800C0E0C0D085088C85098A050BE50BC3942A
:10061800F14005050A750B00E50AC394064008C2B7
:0E06280092750A00750B00050CD0D0D0E032A0
:09070900E4F50CE50CB507FB2238
:100636008F3D8D3E8B3FE4F50DE50DC3953E501B7A
:100646007511657512057513117B057D017F0712FE
:0C065600059CAF3F120709050D80DE2255
:10052A00E4F5B1F5B2F5B3F5B4F5ACF5AD1202BF29
:10053A005389F04389017508F475094885088C8543
:10054A00098AD2A9D2AFD28CE4F511F512F513FBC0
:09055A00AD0BAF0A12059C80EF05
:1005630053B1BF53B2BF53B17F53B27F759850435A
:100573008920438780438E1053C4DFAB07AA06A9A3
:1005830005A8047F407E427D0F7C00120090EF049B
:09059300F404F58DD28ED29922F8
:1001F2008F178E168D158C1453B1BF53B2BF53B1E6
:100202007F53B27F75985043878053C4F843C4200C
:10021200AB17AA16A915A8147F407E427D0F7C0059
:10022200120090C374FF9FFF74FF9EFEE49DFDE4E5
:100232009CFC78081201338FC6AB17AA16A915A821
:10024200147F407E427D0F7C00120090C374FF9F9A
:09025200FF8FC543C408D29922B4
:070003003098FDAF99C2988F
:01000A0022D3
:08071200C2998F993099FD2274
:10025B008F1B8E1A8D198C1853B1FB53B2FB53B3F2
:10026B00BF53B4BF75F85075C40853C4DFAB1BAA9A
:10027B001AA919A8187F407E427D0F7C00120090AE
:10028B00C374FF9FFF74FF9EFEE49DFDE49CFC780E
:10029B00081201338FC6AB1BAA1AA919A8187F40E5
:1002AB007E427D0F7C00120090C374FF9FFF8FC5B1
:0402BB0043C408220E
:07071A0030F8FDAF9AC2F8B0
:0107210022B5
:08072200C2F98F9A30F9FD22A3
:100449008F1F8E1E8D1D8C1C538EF7438901D28CF4
:10045900E4FFFEFDFCAB1FAA1EA91DA81CC31201C7
:10046900226025758A7E758CFF308DFDC28DE51F52
:1004790024FFF51FE51E34FFF51EE51D34FFF51DAC
:0B048900E51C34FFF51C80C8C28C226B
:100494008F248E238D228C21538EF7438901D28C95
:1004A400E4FFFEFDFCAB24AA23A922A821C3120168
:1004B400226025758ACA758CFA308DFDC28DE524BB
:1004C40024FFF524E52334FFF523E52234FFF52248
:0B04D400E52134FFF52180C8C28C2216
:1004DF008F288E278D268C25538EEF438910D28E31
:1004EF00E4FFFEFDFCAB28AA27A926A825C312010D
:1004FF00226025758BEA758DCB308FFDC28FE52875
:10050F0024FFF528E52734FFF527E52634FFF526E8
:0B051F00E52534FFF52580C8C28E22C0
:100314008F2C8E2B8D2A8C2953C9BF53C9DF43C917
:1003240010D2CAE4FFFEFDFCAB2CAA2BA92AA829F3
:10033400C3120122602575CC3075CDF830CFFDC2D3
:10034400CFE52C24FFF52CE52B34FFF52BE52A34DF
:0E035400FFF52AE52934FFF52980C8C2CA2228
:100362008F308E2F8D2E8C2D75C40743C408E4FF69
:10037200FEFDFCAB30AA2FA92EA82DC312012260CC
:100382002875C52C75C6CFE5C430E4FB53C4EFE530
:100392003024FFF530E52F34FFF52FE52E34FFF53D
:0D03A2002EE52D34FFF52D80C553C4F72244
:1003AF008F348E338D328C3175C40743C408E4FF0C
:1003BF00FEFDFCAB34AA33A932A831C3120122606F
:1003CF002875C5D875C6FFE5C430E4FB53C4EFE507
:1003DF003424FFF534E53334FFF533E53234FFF5DC
:0D03EF0032E53134FFF53180C553C4F722EB
:04074600000000228D
:02074D00002288
:08072A00D287120746C28722A4
:07073200D2870000C28722FC
:03074A00C2872241
:1006A700E4FEEF30E70512072A8003120732EF2531
:0606B700E0FF0EBE08EC9E
:0106BD00221A
:1006D000AC07AF051206A7AF041206A7AF030206C8
:0106E000A772
:0603FC008B358A368937BB
:10040200C2AFE4F538AB35AA36A93775F003E53843
:10041200A4F58285F083120027FCE53875F003A469
:1004220029F9EA35F0FA900001120027FD90000246
:10043200120027FBAF041206D00538E538C3940733
:0604420040C3D2AFAF3849
:010448002291
:0605D4008B398A3A893BD5
:1005DA00C2AFE4F53CAB39AA3AA93B12000EFF9030
:1005EA000001120027FD900002120027FB1206D01C
:0D05FA00053CE53CC3940740DCD2AFAF3CAC
:0106070022D0
:0D06E100E4FAE4FBFDFF1206D00ABA21F591
:0106EE0022E9
:1006870053B3FE43B40143DE0443DF0353DFFB757B
:10069700D10775D9CFE4F5D475DC55D2DED2DF2288
:06074000E4F5D4F5DC2213
:070739008F408D418B42222D
:01074F002287
:010750002286
:1006620053B3FD43B40243DE0243DF0353DFFBE433
:10067200F5D175D934F5D375DB1AD2DED2DF43B3A7
:050682000153B4FE224B
:10059C008512D48513DCA2AF9200C2AF75C7AA75C1
:1005AC00C755439101A20092AF8BC48511CC8FC566
:1005BC008DCDA2AF9200C2AF75C7AA75C755539126
:0805CC00FEA20092AFD2DE2274
:1002BF0043DE0443DE1043DE2053DF3F43DF0353AF
:1002CF00DFFB75D10775D9CF75D40375DCCFA2AF1E
:1002DF009200C2AF75C7AA75C755439101A200928C
:1002EF00AF75C40375CCCF75C50375CDCFA2AF92D3
:1002FF0000C2AF75C7AA75C7555391FEA20092AF42
:05030F00D2DED2DF2266
:0D06FC00E4F511F512F513FBFDFF02059C5E
:1006BE007511AA7512067513D17B017D017F030298
:0206CE00059C89
:03000000020146B4
:1001460075C7AA75C75575FD5A75C7AA75C755757A
:10015600FDA5787FE4F6D8FD9000007FFF7E03E4DE
:0C016600F0A3DFFCDEFA7581420201AD5F
:1001720002052AE493A3F8E493A34003F68001F274
:1001820008DFF48029E493A3F85407240CC8C3338E
:10019200C4540F4420C8834004F456800146F6DF5D
:1001A200E4800B01020408102040809006EFE47EF8
:1001B200019360BCA3FF543F30E509541FFEE49352
:1001C200A360010ECF54C025E060A840B8E493A319
:1001D200FAE493A3F8E493A3C8C582C8CAC583CA44
:1001E200F0A3C8C582C8CAC583CADFE9DEE780BEFC
:0106FB0000FE
:10000E00BB010689828A83E0225002E722BBFE02F0
:09001E00E32289828A83E4932223
:10002700BB010CE58229F582E5833AF583E022508E
:1000370006E92582F8E622BBFE06E92582F8E222D8
:0D004700E58229F582E5833AF583E49322F2
:1000540075F008758200EF2FFFEE33FECD33CDCC63
:1000640033CCC58233C5829BED9AEC99E5829840E6
:100074000CF582EE9BFEED9AFDEC99FC0FD5F0D6C3
:10008400E4CEFBE4CDFAE4CCF9A88222B800C1B9ED
:100094000059BA002DEC8BF084CFCECDFCE5F0CB2B
:1000A400F97818EF2FFFEE33FEED33FDEC33FCEB64
:1000B40033FB10D703994004EB99FB0FD8E5E4F91F
:1000C400FA227818EF2FFFEE33FEED33FDEC33FC0C
:1000D400C933C910D7059BE99A4007EC9BFCE99A00
:1000E400F90FD8E0E4C9FAE4CCFB2275F010EF2F45
:1000F400FFEE33FEED33FDCC33CCC833C810D70745
:100104009BEC9AE899400AED9BFDEC9AFCE899F87F
:0E0114000FD5F0DAE4CDFBE4CCFAE4C8F92212
:10012200EB9FF5F0EA9E42F0E99D42F0E89C45F033
:0101320022AA
:10013300E8600FECC313FCED13FDEE13FEEF13FFAA
:03014300D8F122CE
:00000001FF
