:050B09004F4B200A0023
:100ACD000B08011102AA035104818205F103135190
:050ADD0010AA01160043
:060B030075BE0DD2C622F2
:020B0E0080FE67
:0409BE00D2C5C2C319
:1009C200E4F52AF529F528F52720C335E5BD70049D
:1009D200D2C4C322E52A2401F52AE43529F529E403
:1009E2003528F528E43527F5277FA07E867D017C12
:1009F20000AB2AAA29A928F8D31205DC40CBD2C41D
:020A020022D3FD
:010A040022CF
:100A0500E4F52AF529F528F52730C42BE52A240134
:100A1500F52AE43529F529E43528F528E43527F5BF
:100A2500277FA07E867D017C00AB2AAA29A928F80C
:080A3500D31205DC40D322D3EB
:010A3D002296
:02035F008F22EB
:100361001209BE400302050DE5BD640860030205E4
:100371000DC2C575BC4AC2C31209C2400302050DB4
:10038100E5BD6418600302050D75BC5AC2C31209AC
:10039100C2400302050DE5BD6428600302050D7529
:1003A100BC01C2C31209C2400302050DE5BD6428A8
:1003B100600302050DE4F526F525F524F523E47F18
:1003C10008FEFDFCAB26AA25A924A823C31205DC3F
:1003D100506FE51675F00AA42513F5BCC2C31209C6
:1003E100C2400302050DE5BD6428600302050DE569
:1003F1001675F00AA42514F5BCC2C31209C2400344
:1004010002050DE5BD6428600302050DE51675F0D2
:100411000AA42515F5BCC2C31209C2400302050D89
:10042100E5BD6428600302050DE5262401F526E4F7
:100431003525F525E43524F524E43523F523020398
:10044100BF75BC80C2C31209C2400302050DE5BDE0
:100451006428600302050DD2C4C2C31209BE400361
:1004610002050DE5BD6408600302050DC2C575BC3A
:100471004AC2C31209C2400302050DE5BDB418D733
:10048100D2C4C2C3120A05400302050D1209BE50AF
:100491007BE5BD64087075C2C575BC4BC2C312094A
:1004A100C25069E5BD64407063E4F526F525F52485
:1004B100F523E47F0AFEFDFCAB26AA25A924A82387
:1004C100C31205DC5026D2C2C2C31209C2503DE597
:1004D100BD64507037E5262401F526E43525F52560
:1004E100E43524F524E43523F52380C6C2C2C2C312
:1004F1001209C25017E5BDB45812D2C4C2C3120AC0
:0C0501000550097BFF7A0B790912006598
:01050D0022CB
:100A7700E4F5B1F5B1F5B3F5B4F5ACF5ADFF7EC26C
:100A87007D01FC120A3E120B037F5512035FC2C69B
:0F0A9700D2C67F2C7E017D007C0012092880EAE8
:1008DD008F1A8E198D188C17538EF7438901D28C70
:1008ED00E4FFFEFDFCAB1AAA19A918A817C312053F
:1008FD00DC6025758A7E758CFF308DFDC28DE51A05
:10090D0024FFF51AE51934FFF519E51834FFF5182C
:0B091D00E51734FFF51780C8C28C22DC
:100928008F258E248D238C22538EF7438901D28CF8
:10093800E4FFFEFDFCAB25AA24A923A822C31205C7
:10094800DC6025758ACA758CFA308DFDC28DE52567
:1009580024FFF525E52434FFF524E52334FFF523AA
:0B096800E52234FFF52280C8C28C227B
:100973008F1E8E1D8D1C8C1B538EEF438910D28EC0
:10098300E4FFFEFDFCAB1EAA1DA91CA81BC3120598
:10099300DC6025758BEA758DCB308FFDC28FE51E2C
:1009A30024FFF51EE51D34FFF51DE51C34FFF51C82
:0B09B300E51B34FFF51B80C8C28E223C
:1007F5008F3E8E3D8D3C8C3B53C9BF53C9DF43C9EA
:1008050010D2CAE4FFFEFDFCAB3EAA3DA93CA83BC5
:10081500C31205DC602575CC3075CDF830CFFDC22F
:10082500CFE53E24FFF53EE53D34FFF53DE53C349F
:0E083500FFF53CE53B34FFF53B80C8C2CA220C
:100843008F428E418D408C3F75C40743C408E4FF3B
:10085300FEFDFCAB42AA41A940A83FC31205DC60E0
:100863002875C52C75C6CFE5C430E4FB53C4EFE54A
:100873004224FFF542E54134FFF541E54034FFF5FD
:0D08830040E53F34FFF53F80C553C4F72228
:100890008F468E458D448C4375C40743C408E4FFDE
:1008A000FEFDFCAB46AA45A944A843C31205DC6083
:1008B0002875C5D875C6FFE5C430E4FB53C4EFE521
:1008C0004624FFF546E54534FFF545E54434FFF59C
:0D08D00044E54334FFF54380C553C4F722CF
:100A3E0053B1BF53B2BF53B17F53B27F759850437A
:100A4E008920438780438E1053C4DFAB07AA06A9C3
:100A5E0005A8047F407E427D0F7C0012054AEF04FC
:090A6E00F404F58DD28ED2992218
:100728008F4A8E498D488C4753B1BF53B2BF53B1DE
:100738007F53B27F75985043878053C4F843C420D1
:10074800AB4AAA49A948A8477F407E427D0F7C0052
:1007580012054AC374FF9FFF74FF9EFEE49DFDE4EB
:100768009CFC78081205ED8FC6AB4AAA49A948A88F
:10077800477F407E427D0F7C0012054AC374FF9F6D
:09078800FF8FC543C408D2992279
:070AE3003098FDAF99C298A5
:010AEA0022E9
:080AEB00C2998F993099FD2298
:100791008F4E8E4D8D4C8C4B53B1FB53B2FB53B3EB
:1007A100BF53B4BF75F85075C40853C4DFAB4EAA2C
:1007B1004DA94CA84B7F407E427D0F7C0012054A1B
:1007C100C374FF9FFF74FF9EFEE49DFDE49CFC78D3
:1007D100081205ED8FC6AB4EAA4DA94CA84B7F4020
:1007E1007E427D0F7C0012054AC374FF9FFF8FC5B7
:0407F10043C40822D3
:070AF30030F8FDAF9AC2F8D4
:010AFA0022D9
:080AFB00C2F98F9A30F9FD22C7
:0300000002068E67
:10068E00787FE4F6D8FD9000007FFF7E03E4F0A3B0
:0A069E00DFFCDEFA75814E0206E370
:1006A800020A77E493A3F8E493A34003F68001F2E7
:1006B80008DFF48029E493A3F85407240CC8C33353
:1006C800C4540F4420C8834004F456800146F6DF22
:1006D800E4800B0102040810204080900ACDE47EDB
:1006E800019360BCA3FF543F30E509541FFEE49317
:1006F800A360010ECF54C025E060A840B8E493A3DE
:10070800FAE493A3F8E493A3C8C582C8CAC583CA08
:10071800F0A3C8C582C8CAC583CADFE9DEE780BEC0
:010AE2000013
:10050E0075F008758200EF2FFFEE33FECD33CDCCA4
:10051E0033CCC58233C5829BED9AEC99E582984027
:10052E000CF582EE9BFEED9AFDEC99FC0FD5F0D604
:10053E00E4CEFBE4CDFAE4CCF9A88222B800C1B92E
:10054E000059BA002DEC8BF084CFCECDFCE5F0CB6C
:10055E00F97818EF2FFFEE33FEED33FDEC33FCEBA5
:10056E0033FB10D703994004EB99FB0FD8E5E4F960
:10057E00FA227818EF2FFFEE33FEED33FDEC33FC4D
:10058E00C933C910D7059BE99A4007EC9BFCE99A41
:10059E00F90FD8E0E4C9FAE4CCFB2275F010EF2F86
:1005AE00FFEE33FEED33FDCC33CCC833C810D70786
:1005BE009BEC9AE899400AED9BFDEC9AFCE899F8C1
:0E05CE000FD5F0DAE4CDFBE4CCFAE4C8F92254
:1005DC00EB9FF5F0EA9E42F0E99D42F0E89C45F075
:0105EC0022EC
:1005ED00E8600FECC313FCED13FDEE13FEEF13FFEC
:0305FD00D8F12210
:10000300E536242AF8E60536227827300702782ACF
:10001300E475F0011206580206002000EB7F2ED291
:10002300008018EF540F2490D43440D4FF30040BD5
:10003300EF24BFB41A0050032461FFE537600215B3
:1000430037053AE53A7002053930070D7827E4752C
:10005300F001120658EF020646020AA67403D207FD
:100063008003E4C207F5368B278A288929E4F5370C
:10007300F539F53AE53760077F2012003E80F575C4
:1000830038FFC201C200C202C203C205C206C208CF
:1000930012000CFF700D3007057F0012004FAF3ABE
:1000A300AE3922B4255FC2D5C20412000CFF24D09E
:1000B300B40A00501A75F00A783730D50508B6FF30
:1000C3000106C6A426F620D5047002D20380D924E3
:1000D300CFB41A00EF5004C2E5D20402024FD2019A
:1000E30080C6D20080C0D20280BCD2D580BAD205ED
:1000F30080B47F2012003E2002077401B537004010
:10010300F1120003FF12003E020077D208D20680EC
:1001130095120003FB120003FA120003F94A4B7015
:100123000679207A037BFF20022EE537602A7E00C2
:100133008E8275830012061960060EEE653870F024
:10014300C2D5EBC0E0EAC0E0E9C0E0EE120296D00F
:10015300E0F9D0E0FAD0E0FB120600FF60AAEBC0A2
:10016300E0EAC0E0E9C0E012003ED0E02401F9D0AB
:10017300E03400FAD0E0FBE5380460DCD538D98000
:10018300877BFF7A027992D202809C791080027970
:1001930008C206C2088008D2D5790A8004790AC247
:1001A300D5E538047002F538E4FAFDFEFF120003CA
:1001B300FC7B08200113120003FD7B1030000A12A0
:1001C3000003FE120003FF7B20EC3382D592D5504F
:1001D30013C3E43000069FFFE49EFEE42001039D69
:1001E300FDE49CFCE4CBF8C201EC700CCFCECDCC8B
:1001F300E824F8F870F38017C3EF33FFEE33FEED16
:1002030033FDEC33FCEB33FB994002FB0FD8E9EBF6
:10021300300105F8D0E0C448B201C0E00AEC4D4E0D
:100223004F78207B0070C2EAB5380040BCC0E012B2
:100233000298D0F0D0E0200104C4C0E0C4B201C0F1
:10024300F0120027D0F0D5F0EB0200771206680118
:100253001453018E5800E54C00E14201924F019A7C
:0F02630044019A4900FA4301A0550184460184E1
:100272004501844703405000E92D00ED2E01102B6B
:1002820000F123010E2003292A00A94800000108D9
:100292003F3F3F00790AA2D5200314300509B91067
:1002A200020404B9080104A2D52006025001042068
:1002B20002689202B537005034C0E07F2030031943
:1002C2007F30A20272067205500F1202EFC202C202
:1002D20006C205C2087F30800F300503E9C0E01274
:1002E200003E300503D0E0F9D0E0B537CC30051739
:1002F2007F30B9100C12003E7F583004077F78809F
:1003020003B9080312003E3002057F2D02003E7F32
:10031200202008F87F2B2006F322920280CF286E3D
:10032200756C6C2900D2011200033001F8C2017809
:100332003730D50108F60200A92D50434958120062
:10034200032403B405004001E490033B9312002F01
:0D035200743A12002FD20375370402018E99
:10060000BB010689828A83E0225002E722BBFE02F8
:09061000E32289828A83E493222B
:10061900BB010CE58229F582E5833AF583E0225096
:1006290006E92582F8E622BBFE06E92582F8E222E0
:0D063900E58229F582E5833AF583E49322FA
:10064600BB010689828A83F0225002F722BBFE0193
:02065600F3228D
:10065800FAE6FB0808E6F925F0F618E6CA3AF622A3
:10066800D083D082F8E4937012740193700DA3A321
:1006780093F8740193F5828883E473740293686035
:06068800EFA3A3A380DF35
:100AA600EFB40A07740D120AB1740A309811A899A6
:100AB600B8130CC2983098FDA899C298B811F630B0
:070AC60099FDC299F5992288
:00000001FF
