:080AC400020E00000214000004
:1004B400A2AF9200C2AF75C7AA75C755439F01A2E8
:1004C4000092AF75AF0475A60DE4F5A7A2AF920034
:1004D400C2AF75C7AA75C75543A401A20092AF85E0
:1004E400AE22E52254F0F5236480707753220F7511
:1004F400A60CF5A7A2AF9200C2AF75C7AA75C755DF
:1005040043A401A20092AF85AE21E52175F010A4A9
:100514007C002522FDEC35F0FCE41202A68F278E28
:10052400268D258C24E4FFFE7D407C40AB27AA2643
:10053400A925A8241200FBE4FBFA79807840120272
:10054400048F2B8E2A8D298C28E4FFFE7D047CC227
:10055400AB2BAA2AA929A82812000A8F138E128D60
:10056400118C10E523705D53220F75A60CF5A7A21C
:10057400AF9200C2AF75C7AA75C75543A401A200C4
:1005840092AF85AE21E52175F010A47C002522FDF3
:10059400EC35F0FCE41202A68F278E268D258C24E0
:1005A400E4FFFE7D407C40AB27AA26A925A824129F
:1005B40000FBE4FBFA798078401202048F138E1258
:1005C4008D118C10E5236490707875A60EF5A7A2A2
:1005D400AF9200C2AF75C7AA75C75543A401A20064
:1005E40092AF85AE2175A60FF5A7A2AF9200C2AF58
:1005F40075C7AA75C75543A401A20092AF85AE2260
:1006040053220FE52175F010A47C002522FDEC3562
:10061400F0FCE41202A68F278E268D258C24E4FF9D
:10062400FE7D407C40AB27AA26A925A8241200FB06
:10063400E4FBFA798078401202048F138E128D1134
:100644008C10A2AF9200C2AF75C7AA75C755539F4D
:05065400FEA20092AFC0
:01065900227E
:10065A007F007EC27D017C00120A8B1204B443E83B
:10066A000853E8F843E101759502E4FFFEC2EFD2B0
:10067A00EE30EFFD74002FF58274003EF583E5C37A
:10068A00F074052FF58274003EF583E5C2F00FBFC2
:10069A0000010EEF64054E70D4E4F595FE7F0274F6
:1006AA00002FF58274003EF583E0250FF50FE4353F
:1006BA000EF50E74052FF58274003EF583E02515BC
:1006CA00F515E43514F5140FBF00010EEF64054E5D
:1006DA0070CDAE0EAF0F7C007D031203298F0CAED6
:1006EA0014AF157C007D031203298F0DE50C75F0FC
:1006FA0010A47C00250DFDEC35F0FCE41202A6AB3B
:10070A0007AA06A905A804E4FFFE7D807C4512021B
:10071A0004AB13AA12A911A8101200FB8F0B8E0AA0
:06072A008D098C0880FE21
:0107300022A6
:100A8B0053B1BF53B2BF53B17F53B27F759850432D
:100A9B008920438780438E1053C4DFAB07AA06A976
:100AAB0005A8047F407E427D0F7C0012039BEF0460
:090ABB00F404F58DD28ED29922CB
:1007DD008F198E188D178C1653B1BF53B2BF53B1ED
:1007ED007F53B27F75985043878053C4F843C4201C
:1007FD00AB19AA18A917A8167F407E427D0F7C0061
:10080D0012039BC374FF9FFF74FF9EFEE49DFDE4E6
:10081D009CFC780812044C8FC6AB19AA18A917A80E
:10082D00167F407E427D0F7C0012039BC374FF9F99
:10083D00FF74FF9EFEE49DFDE49CFCEFE48FC54339
:05084D00C408D299224D
:070ACD003098FDAF99C298BB
:010AD40022FF
:080AD500C2998F993099FD22AE
:100852008F1D8E1C8D1B8C1A53B1FB53B2FB53B3ED
:10086200BF53B4BF75F85075C40853C4DFAB1DAA9B
:100872001CA91BA81A7F407E427D0F7C0012039B9D
:10088200C374FF9FFF74FF9EFEE49DFDE49CFC7811
:100892000812044C8FC6AB1DAA1CA91BA81A7F40C4
:1008A2007E427D0F7C0012039BC374FF9FFF74FF87
:1008B2009EFEE49DFDE49CFCEFE48FC543C4082248
:070ADD0030F8FDAF9AC2F8EA
:010AE40022EF
:080AE500C2F98F9A30F9FD22DD
:1009AA008F2F8E2E8D2D8C2C538EF7438901D28C4E
:1009BA00E4FFFEFDFCAB2FAA2EA92DA82CC312041E
:1009CA003B6025758A7E758CFF308DFDC28DE52FC3
:1009DA0024FFF52FE52E34FFF52EE52D34FFF52DF6
:0B09EA00E52C34FFF52C80C8C28C22E5
:1009F5008F338E328D318C30538EF7438901D28CF3
:100A0500E4FFFEFDFCAB33AA32A931A830C31204C2
:100A15003B6025758ACA758CFA308DFDC28DE5332C
:100A250024FFF533E53234FFF532E53134FFF53196
:0B0A3500E53034FFF53080C8C28C2291
:100A40008F378E368D358C34538EEF438910D28E8E
:100A5000E4FFFEFDFCAB37AA36A935A834C3120467
:100A60003B6025758BEA758DCB308FFDC28FE537E6
:100A700024FFF537E53634FFF536E53534FFF53537
:0B0A8000E53434FFF53480C8C28E223C
:1008C2008F3B8E3A8D398C3853C9BF53C9DF43C928
:1008D20010D2CAE4FFFEFDFCAB3BAA3AA939A83804
:1008E200C312043B602575CC3075CDF830CFFDC204
:1008F200CFE53B24FFF53BE53A34FFF53AE53934E1
:0E090200FFF539E53834FFF53880C8C2CA2247
:100910008F3F8E3E8D3D8C3C75C40743C408E4FF79
:10092000FEFDFCAB3FAA3EA93DA83CC312043B60C0
:100930002875C52C75C6CFE5C430E4FB53C4EFE57C
:100940003F24FFF53FE53E34FFF53EE53D34FFF53E
:0D0950003DE53C34FFF53C80C553C4F72263
:10095D008F438E428D418C4075C40743C408E4FF1C
:10096D00FEFDFCAB43AA42A941A840C312043B6063
:10097D002875C5D875C6FFE5C430E4FB53C4EFE553
:10098D004324FFF543E54234FFF542E54134FFF5DD
:0D099D0041E54034FFF54080C553C4F7220A
:03000000020731C3
:1007310075C7AA75C75575FD5A75C7AA75C7557589
:10074100FDA5787FE4F6D8FD9000007FFF7E03E4ED
:0C075100F0A3DFFCDEFA7581430207987C
:10000300020314E86480F8E933E83360110460F014
:10001300ED33EC337009E8FCE9FDEAFEEBFF220463
:1000230060DED3EB9FEA9EE99DE8C2E78CF0C2F75E
:1000330095F0400CE8CCF8E9CDF9EACEFAEBCFFB2A
:100043001202DF85D0F05804700320D5B3E80470A2
:10005300075002B2D502031E92D5EC0460F7E4CC3C
:10006300C0E0C398F8603B94186008400DD0E0FBF3
:100073000202F6E4FBFAC9FC8028E830E406E4C98E
:10008300FBE4CAFCE830E305E4C9CACBFCE8540747
:100093006010F8C3E913F9EA13FAEB13FBEC13FC52
:1000A300D8F130F52FC3E49CFCEF9BFFEE9AFEEDF5
:1000B30099FDD0E0FBEF4E4D4C701222DB0302039F
:1000C3001BEC2CFCEF33FFEE33FEED33FDED30E79D
:1000D300EB0202F6EF2BFFEE3AFEED39FDD0E0FB2B
:1000E30050130BBB000302031EED13FDEE13FEEFD3
:0800F30013FFEC13FC0202F6FE
:1000FB00EC4D6011E8497017ED33EC3304600DE4FF
:10010B00FCFFFEFD22E933E8330470F802031412FE
:10011B0002DF58046009E4CC248150062850090200
:10012B00031E28400302031BC0E0EB4A7044B98056
:10013B0006D0E0FB02030AEF4E701CBD8008EBFFFC
:10014B00EAFEE9FD80EBE98DF0A4FEE5F00201E4A7
:10015B00E9CDF9EAFEEBFFEF89F0A4FCE5F0CE89DF
:10016B00F0A42EFFE435F0CD89F0A42DFEE435F09C
:10017B008067EF4E7005BD80D780C3EF8BF0A4ACCA
:10018B00F0EE8BF0A42CFCE435F0F8EF8AF0A42C05
:10019B00E5F038FCE433CB8DF0A42CFCE5F03BF818
:1001AB00EE8AF0A42CFCE5F038F8E433CF89F0A408
:1001BB002CFCE5F038CF3400CE89F0A42FFFE5F00E
:1001CB003EFEE433C98DF0A42EFEE5F039CD8AF066
:1001DB00A42FFFE5F03EFEE43DFD33D0E0FB5007DE
:1001EB000BBB000F02031EEC2CFCEF33FFEE33FEB8
:0601FB00ED33FD0202F6E7
:1002010002031EEC5D046005E85904700302031447
:100211001202DF580460F6EC4860F2EC7004FDFE57
:10022100FF22C860DB2481C85009C39860025006D0
:1002310002031B9850CAF582E9294B4A7005AB822B
:1002410002030A75F0007C1A7880C3EF9BEE9AEDE9
:1002510099400DC3EF9BFFEE9AFEED99FDE842F048
:10026100DC23ACF0D0E0FFD0E0FED0E0FDAB82209B
:10027100E7101BEB60BAEC2CFCEF33FFEE33FEED25
:1002810033FD0202F6E803F830E705C0F075F0002F
:10029100EF2FFFEE33FEED33FD40B830E7C280AA09
:1002A10075F020800E75F010800575F0087D007ED8
:1002B100007F003392D530D50312042DEC3340106A
:1002C100EF33FFEE33FEED33FDEC33FCD5F0ED22E1
:0E02D100E5F0247EA2D513CC92E7CDCEFF221D
:1002DF00E9D2E7C933E833F892D5EDD2E7CD33EC65
:0702EF0033FC5002B2D522DE
:1002F600EC30E7100FBF000C0EBE00080DBD000469
:100306000BEB6014A2D5EB13FCED92E7FD2274FF14
:10031600FCFDFEFF22E480F8A2D574FF13FC7D806D
:03032600E480EF81
:10075D0002065AE493A3F8E493A34003F68001F252
:10076D0008DFF48029E493A3F85407240CC8C3339D
:10077D00C4540F4420C8834004F456800146F6DF6C
:10078D00E4800B0102040810204080900AC4E47E2E
:10079D00019360BCA3FF543F30E509541FFEE49361
:1007AD00A360010ECF54C025E060A840B8E493A328
:1007BD00FAE493A3F8E493A3C8C582C8CAC583CA53
:1007CD00F0A3C8C582C8CAC583CADFE9DEE780BE0B
:010ACC000029
:10032900C2D5EC30E709B2D5E4C39DFDE49CFCEEEF
:1003390030E715B2D5E4C39FFFE49EFE12045FC304
:10034900E49DFDE49CFC800312045F30D507C3E4FF
:060359009FFFE49EFE225E
:10035F0075F008758200EF2FFFEE33FECD33CDCC55
:10036F0033CCC58233C5829BED9AEC99E5829840D8
:10037F000CF582EE9BFEED9AFDEC99FC0FD5F0D6B5
:10038F00E4CEFBE4CDFAE4CCF9A88222B800C1B9DF
:10039F000059BA002DEC8BF084CFCECDFCE5F0CB1D
:1003AF00F97818EF2FFFEE33FEED33FDEC33FCEB56
:1003BF0033FB10D703994004EB99FB0FD8E5E4F911
:1003CF00FA227818EF2FFFEE33FEED33FDEC33FCFE
:1003DF00C933C910D7059BE99A4007EC9BFCE99AF2
:1003EF00F90FD8E0E4C9FAE4CCFB2275F010EF2F37
:1003FF00FFEE33FEED33FDCC33CCC833C810D70737
:10040F009BEC9AE899400AED9BFDEC9AFCE899F871
:0E041F000FD5F0DAE4CDFBE4CCFAE4C8F92204
:0E042D00C3E49FFFE49EFEE49DFDE49CFC22E0
:10043B00EB9FF5F0EA9E42F0E99D42F0E89C45F017
:01044B00228E
:10044C00E8600FECC313FCED13FDEE13FEEF13FF8E
:03045C00D8F122B2
:10045F00BC000BBE0029EF8DF084FFADF022E4CC81
:10046F00F875F008EF2FFFEE33FEEC33FCEE9DEC4A
:10047F00984005FCEE9DFE0FD5F0E9E4CEFD22ED90
:10048F00F8F5F0EE8420D21CFEADF075F008EF2FDA
:10049F00FFED33FD4007985006D5F0F222C398FDCB
:0504AF000FD5F0EA2268
:00000001FF
