:1001C200E4F5B1F5B2F5B3F5B4F5ACF5AD7F807EEB
:1001D20025FDFC1203DB43DE0153E8F043B38053F9
:1001E200B47FE4F5F643F60143E10153E8DF53E857
:1001F200EF53E1F753E1FB43E10275D10775D9FFF4
:1002020075D20275DAFFD2DED2DFD2AED2AF80FE75
:1002FA008F0B8E0A8D098C08538EF7438901D28C95
:10030A00E4FFFEFDFCAB0BAA0AA909A808C3120068
:10031A00D16025758A7E758CFF308DFDC28DE50B07
:10032A0024FFF50BE50A34FFF50AE50934FFF50960
:0B033A00E50834FFF50880C8C28C22E3
:100345008F0F8E0E8D0D8C0C538EF7438901D28C39
:10035500E4FFFEFDFCAB0FAA0EA90DA80CC312000D
:10036500D16025758ACA758CFA308DFDC28DE50F71
:1003750024FFF50FE50E34FFF50EE50D34FFF50D01
:0B038500E50C34FFF50C80C8C28C2290
:100390008F138E128D118C10538EEF438910D28ED5
:1003A000E4FFFEFDFCAB13AA12A911A810C31200B2
:1003B000D16025758BEA758DCB308FFDC28FE5132B
:1003C00024FFF513E51234FFF512E51134FFF511A2
:0B03D000E51034FFF51080C8C28E223B
:100212008F178E168D158C1453C9BF53C9DF43C96E
:1002220010D2CAE4FFFEFDFCAB17AA16A915A8144A
:10023200C31200D1602575CC3075CDF830CFFDC228
:10024200CFE51724FFF517E51634FFF516E515344B
:0E025200FFF515E51434FFF51480C8C2CA226A
:100260008F1B8E1A8D198C1875C40743C408E4FFC0
:10027000FEFDFCAB1BAA1AA919A818C31200D16075
:100280002875C52C75C6CFE5C430E4FB53C4EFE533
:100290001B24FFF51BE51A34FFF51AE51934FFF5A9
:0D02A00019E51834FFF51880C553C4F72286
:1002AD008F1F8E1E8D1D8C1C75C40743C408E4FF63
:1002BD00FEFDFCAB1FAA1EA91DA81CC31200D16018
:1002CD002875C5D875C6FFE5C430E4FB53C4EFE50A
:1002DD001F24FFF51FE51E34FFF51EE51D34FFF548
:0D02ED001DE51C34FFF51C80C553C4F7222D
:1003DB0053B1BF53B2BF53B17F53B27F75985043E4
:1003EB008920438780438E1053C4DFAB07AA06A92D
:1003FB0005A8047F407E427D0F7C0012003FEF0476
:09040B00F404F58DD28ED2992281
:1000F5008F248E238D228C2153B1BF53B2BF53B1B0
:100105007F53B27F75985043878053C4F843C4200A
:10011500AB24AA23A922A8217F407E427D0F7C0023
:1001250012003FC374FF9FFF74FF9EFEE49DFDE434
:100135009CFC78081200E28FC6AB24AA23A922A84A
:10014500217F407E427D0F7C0012003FC374FF9FDC
:09015500FF8FC543C408D29922B2
:070440003098FDAF99C2984E
:010447002292
:08044800C2998F993099FD2241
:10015E008F288E278D268C2553B1FB53B2FB53B3BC
:10016E00BF53B4BF75F85075C40853C4DFAB28AA8B
:10017E0027A926A8257F407E427D0F7C0012003FD6
:10018E00C374FF9FFF74FF9EFEE49DFDE49CFC780C
:10019E00081200E28FC6AB28AA27A926A8257F4001
:1001AE007E427D0F7C0012003FC374FF9FFF8FC500
:0401BE0043C408220C
:0704500030F8FDAF9AC2F87D
:010457002282
:08045800C2F98F9A30F9FD2270
:03000000020414E3
:1004140075C7AA75C75575FD5A75C7AA75C75575A9
:10042400FDA5787FE4F6D8FD9000007FFF7E03E40D
:0C043400F0A3DFFCDEFA7581280201C293
:1000030075F008758200EF2FFFEE33FECD33CDCCB4
:1000130033CCC58233C5829BED9AEC99E582984037
:100023000CF582EE9BFEED9AFDEC99FC0FD5F0D614
:10003300E4CEFBE4CDFAE4CCF9A88222B800C1B93E
:100043000059BA002DEC8BF084CFCECDFCE5F0CB7C
:10005300F97818EF2FFFEE33FEED33FDEC33FCEBB5
:1000630033FB10D703994004EB99FB0FD8E5E4F970
:10007300FA227818EF2FFFEE33FEED33FDEC33FC5D
:10008300C933C910D7059BE99A4007EC9BFCE99A51
:10009300F90FD8E0E4C9FAE4CCFB2275F010EF2F96
:1000A300FFEE33FEED33FDCC33CCC833C810D70796
:1000B3009BEC9AE899400AED9BFDEC9AFCE899F8D1
:0E00C3000FD5F0DAE4CDFBE4CCFAE4C8F92264
:1000D100EB9FF5F0EA9E42F0E99D42F0E89C45F085
:0100E10022FC
:1000E200E8600FECC313FCED13FDEE13FEEF13FFFC
:0300F200D8F12220
:00000001FF
