:0604D400010C00010D0007
:03000B0002000EE2
:09000E0085088C850A8A050D3273
:03001B000204B329
:0904B300758D00758B00B28332D7
:10048B00E4F5B1F5B2F5B3F5B4F5ACF5AD53890FB1
:10049B00438910538EEF75093C750BB0F58DF58BB9
:0804AB00D2ABD2AFD28E80FE6D
:100371008F128E118D108C0F538EF7438901D28C01
:10038100E4FFFEFDFCAB12AA11A910A80FC31200D5
:10039100EC6025758A7E758CFF308DFDC28DE5126E
:1003A10024FFF512E51134FFF511E51034FFF510C6
:0B03B100E50F34FFF50F80C8C28C225E
:1003BC008F168E158D148C13538EF7438901D28CA6
:1003CC00E4FFFEFDFCAB16AA15A914A813C312007A
:1003DC00EC6025758ACA758CFA308DFDC28DE516D8
:1003EC0024FFF516E51534FFF515E51434FFF51467
:0B03FC00E51334FFF51380C8C28C220B
:100407008F1A8E198D188C17538EEF438910D28E41
:10041700E4FFFEFDFCAB1AAA19A918A817C312001E
:10042700EC6025758BEA758DCB308FFDC28FE51A91
:1004370024FFF51AE51934FFF519E51834FFF51807
:0B044700E51734FFF51780C8C28E22B5
:100289008F1E8E1D8D1C8C1B53C9BF53C9DF43C9DB
:1002990010D2CAE4FFFEFDFCAB1EAA1DA91CA81BB7
:1002A900C31200EC602575CC3075CDF830CFFDC296
:1002B900CFE51E24FFF51EE51D34FFF51DE51C34B1
:0E02C900FFF51CE51B34FFF51B80C8C2CA22DE
:1002D7008F248E238D228C2175C40743C408E4FF25
:1002E700FEFDFCAB24AA23A922A821C31200EC60BF
:1002F7002875C52C75C6CFE5C430E4FB53C4EFE5BC
:100307002424FFF524E52334FFF523E52234FFF504
:0D03170022E52134FFF52180C553C4F722F3
:100324008F288E278D268C2575C40743C408E4FFC7
:10033400FEFDFCAB28AA27A926A825C31200EC6061
:100344002875C5D875C6FFE5C430E4FB53C4EFE592
:100354002824FFF528E52734FFF527E52634FFF5A3
:0D03640026E52534FFF52580C553C4F7229A
:1004520053B1BF53B2BF53B17F53B27F759850436C
:100462008920438780438E1053C4DFAB07AA06A9B5
:1004720005A8047F407E427D0F7C0012005AEF04E3
:09048200F404F58DD28ED299220A
:1001BC008F2C8E2B8D2A8C2953B1BF53B2BF53B1C8
:1001CC007F53B27F75985043878053C4F843C42043
:1001DC00AB2CAA2BA92AA8297F407E427D0F7C003C
:1001EC0012005AC374FF9FFF74FF9EFEE49DFDE452
:1001FC009CFC78081200FD8FC6AB2CAA2BA92AA850
:10020C00297F407E427D0F7C0012005AC374FF9FF1
:09021C00FF8FC543C408D29922EA
:070003003098FDAF99C2988F
:01000A0022D3
:0804BC00C2998F993099FD22CD
:100225008F308E2F8D2E8C2D53B1FB53B2FB53B3D4
:10023500BF53B4BF75F85075C40853C4DFAB30AABB
:100245002FA92EA82D7F407E427D0F7C0012005ADB
:10025500C374FF9FFF74FF9EFEE49DFDE49CFC7844
:10026500081200FD8FC6AB30AA2FA92EA82D7F40FE
:100275007E427D0F7C0012005AC374FF9FFF8FC51D
:0402850043C4082244
:0704C40030F8FDAF9AC2F809
:0104CB00220E
:0804CC00C2F98F9A30F9FD22FC
:03000000020110EA
:1001100075C7AA75C75575FD5A75C7AA75C75575B0
:10012000FDA5787FE4F6D8FD9000007FFF7E03E414
:0C013000F0A3DFFCDEFA758130020177DD
:10013C0002048BE493A3F8E493A34003F68001F24A
:10014C0008DFF48029E493A3F85407240CC8C333C4
:10015C00C4540F4420C8834004F456800146F6DF93
:10016C00E4800B01020408102040809004D4E47E4B
:10017C00019360BCA3FF543F30E509541FFEE49388
:10018C00A360010ECF54C025E060A840B8E493A34F
:10019C00FAE493A3F8E493A3C8C582C8CAC583CA7A
:1001AC00F0A3C8C582C8CAC583CADFE9DEE780BE32
:0104DA000021
:10001E0075F008758200EF2FFFEE33FECD33CDCC99
:10002E0033CCC58233C5829BED9AEC99E58298401C
:10003E000CF582EE9BFEED9AFDEC99FC0FD5F0D6F9
:10004E00E4CEFBE4CDFAE4CCF9A88222B800C1B923
:10005E000059BA002DEC8BF084CFCECDFCE5F0CB61
:10006E00F97818EF2FFFEE33FEED33FDEC33FCEB9A
:10007E0033FB10D703994004EB99FB0FD8E5E4F955
:10008E00FA227818EF2FFFEE33FEED33FDEC33FC42
:10009E00C933C910D7059BE99A4007EC9BFCE99A36
:1000AE00F90FD8E0E4C9FAE4CCFB2275F010EF2F7B
:1000BE00FFEE33FEED33FDCC33CCC833C810D7077B
:1000CE009BEC9AE899400AED9BFDEC9AFCE899F8B6
:0E00DE000FD5F0DAE4CDFBE4CCFAE4C8F92249
:1000EC00EB9FF5F0EA9E42F0E99D42F0E89C45F06A
:0100FC0022E1
:1000FD00E8600FECC313FCED13FDEE13FEEF13FFE1
:03010D00D8F12204
:00000001FF
