:060003008E0B8F0C8D0D29
:10000900E4F50EA907E9C394805004E4F980027964
:10001900807D807C02E97A002400FFEA350BF50F28
:100029008F10ED7003EC6403601E851082850F83C9
:10003900E4938D828C83F0050E0DBD00010C051033
:10004900E51070DE050F80DAAB0CA903E9C39480D3
:10005900E95004248080022400FFE43402FCAD0747
:100069008D828C83E50DF08BA6E50BFFF5A775AEA8
:10007900FFA2AF9200C2AF75C7AA75C755439F01CA
:10008900A20092AFA2AF9200C2AF75C7AA75C755B9
:1000990043A501A20092AF75AF22A2AF9200C2AFF1
:1000A90075C7AA75C75543A401A20092AFA903E970
:1000B900C394805004E4F9800279807C027D8089B0
:1000C900A68FA7A2AF9200C2AF75C7AA75C755433D
:1000D9009F01A20092AFA2AF9200C2AF75C7AA75E5
:1000E900C75543A501A20092AF75AF21EDF4700386
:1000F900EC640260238D828C83E0F5AEA2AF92009E
:10010900C2AF75C7AA75C75543A401A20092AF052E
:10011900A60DBD00010C80D4A2AF9200C2AF75C775
:10012900AA75C75553A5FEA20092AFA2AF9200C20D
:0E013900AF75C7AA75C755539FFEA20092AFBF
:010147002295
:04058C008F828E8349
:03059000E493FFF2
:010593002245
:100307007F007EC27D017C001205277D347F027E3F
:10031700381200037D557F017E471200037D567F0B
:10032700021200037DAA7F031200037D667F041279
:1003370000037F027E3812058C8F087F047E4712E8
:10034700058CEF7D00FC7F0312058C7E00ED2FF5F9
:070357000AEE3CF50980FEEF
:1005270053B1BF53B2BF53B17F53B27F7598504396
:100537008920438780438E1053C4DFAB07AA06A9DF
:1005470005A8047F407E427D0F7C00120184EF04E2
:09055700F404F58DD28ED2992234
:10023A008F148E138D128C1153B1BF53B2BF53B1A9
:10024A007F53B27F75985043878053C4F843C420C4
:10025A00AB14AA13A912A8117F407E427D0F7C001D
:10026A00120184C374FF9FFF74FF9EFEE49DFDE4A8
:10027A009CFC78081202278FC6AB14AA13A912A8ED
:10028A00117F407E427D0F7C00120184C374FF9F60
:09029A00FF8FC543C408D299226C
:070594003098FDAF99C298F9
:01059B00223D
:08059C00C2998F993099FD22EC
:1002A3008F188E178D168C1553B1FB53B2FB53B3B6
:1002B300BF53B4BF75F85075C40853C4DFAB18AA55
:1002C30017A916A8157F407E427D0F7C001201847A
:1002D300C374FF9FFF74FF9EFEE49DFDE49CFC78C6
:1002E300081202278FC6AB18AA17A916A8157F40B4
:1002F3007E427D0F7C00120184C374FF9FFF8FC574
:0403030043C40822C5
:0705A40030F8FDAF9AC2F828
:0105AB00222D
:0805AC00C2F98F9A30F9FD221B
:100446008F1C8E1B8D1A8C19538EF7438901D28C03
:10045600E4FFFEFDFCAB1CAA1BA91AA819C31202D5
:10046600166025758A7E758CFF308DFDC28DE51C64
:1004760024FFF51CE51B34FFF51BE51A34FFF51ABE
:0B048600E51934FFF51980C8C28C2274
:100491008F248E238D228C21538EF7438901D28C98
:1004A100E4FFFEFDFCAB24AA23A922A821C312026A
:1004B100166025758ACA758CFA308DFDC28DE524CA
:1004C10024FFF524E52334FFF523E52234FFF5224B
:0B04D100E52134FFF52180C8C28C2219
:1004DC008F288E278D268C25538EEF438910D28E34
:1004EC00E4FFFEFDFCAB28AA27A926A825C312020F
:1004FC00166025758BEA758DCB308FFDC28FE52884
:10050C0024FFF528E52734FFF527E52634FFF526EB
:0B051C00E52534FFF52580C8C28E22C3
:10035E008F2C8E2B8D2A8C2953C9BF53C9DF43C9CD
:10036E0010D2CAE4FFFEFDFCAB2CAA2BA92AA829A9
:10037E00C3120216602575CC3075CDF830CFFDC294
:10038E00CFE52C24FFF52CE52B34FFF52BE52A3495
:0E039E00FFF52AE52934FFF52980C8C2CA22DE
:1003AC008F308E2F8D2E8C2D75C40743C408E4FF1F
:1003BC00FEFDFCAB30AA2FA92EA82DC3120216608D
:1003CC002875C52C75C6CFE5C430E4FB53C4EFE5E6
:1003DC003024FFF530E52F34FFF52FE52E34FFF5F3
:0D03EC002EE52D34FFF52D80C553C4F722FA
:1003F9008F348E338D328C3175C40743C408E4FFC2
:10040900FEFDFCAB34AA33A932A831C3120216602F
:100419002875C5D875C6FFE5C430E4FB53C4EFE5BC
:100429003424FFF534E53334FFF533E53234FFF591
:0D04390032E53134FFF53180C553C4F722A0
:0300000002056096
:1005600075C7AA75C75575FD5A75C7AA75C755755C
:10057000FDA5787FE4F6D8FD9000007FFF7E03E4C0
:0C058000F0A3DFFCDEFA758134020307F3
:1001480075F008758200EF2FFFEE33FECD33CDCC6E
:1001580033CCC58233C5829BED9AEC99E5829840F1
:100168000CF582EE9BFEED9AFDEC99FC0FD5F0D6CE
:10017800E4CEFBE4CDFAE4CCF9A88222B800C1B9F8
:100188000059BA002DEC8BF084CFCECDFCE5F0CB36
:10019800F97818EF2FFFEE33FEED33FDEC33FCEB6F
:1001A80033FB10D703994004EB99FB0FD8E5E4F92A
:1001B800FA227818EF2FFFEE33FEED33FDEC33FC17
:1001C800C933C910D7059BE99A4007EC9BFCE99A0B
:1001D800F90FD8E0E4C9FAE4CCFB2275F010EF2F50
:1001E800FFEE33FEED33FDCC33CCC833C810D70750
:1001F8009BEC9AE899400AED9BFDEC9AFCE899F88B
:0E0208000FD5F0DAE4CDFBE4CCFAE4C8F9221D
:10021600EB9FF5F0EA9E42F0E99D42F0E89C45F03E
:0102260022B5
:10022700E8600FECC313FCED13FDEE13FEEF13FFB5
:03023700D8F122D9
:00000001FF
